:020000040800F2
:100000000004002053140008B1090008B3090008D7
:10001000B7090008BB090008BF090008000000007C
:10002000000000000000000000000000C3090008FC
:10003000C509000800000000C7090008C909000838
:100040007314000873140008731400087314000874
:100050007314000873140008731400087314000864
:100060007314000873140008731400087314000854
:100070007314000873140008731400087314000844
:100080007314000873140008731400087314000834
:100090007314000873140008731400087314000824
:1000A0007314000873140008731400087314000814
:1000B0007314000873140008731400087314000804
:1000C00073140008731400087314000873140008F4
:1000D00073140008731400087314000873140008E4
:1000E00073140008731400087314000873140008D4
:1000F00073140008731400087314000873140008C4
:1001000073140008731400087314000873140008B3
:1001100073140008731400087314000873140008A3
:100120007314000873140008731400087314000893
:1001300000F002F800F03AF80AA090E8000C8244BF
:100140008344AAF10107DA4501D100F02FF8AFF29C
:10015000090EBAE80F0013F0010F18BFFB1A43F0A5
:100160000103184798170000B8170000103A24BF81
:1001700078C878C1FAD8520724BF30C830C144BF0C
:1001800004680C607047000000230024002500264E
:10019000103A28BF78C1FBD8520728BF30C148BFEA
:1001A0000B6070471FB51FBD10B510BD01F079F988
:1001B0001146FFF7F7FF00F078FB01F097F903B461
:1001C000FFF7F2FF03BC01F09FF90000002904DAF9
:1001D0004A4211B22D22027001E0202202706422F4
:1001E00091FBF2F23032D3B2421C104613706422FB
:1001F00091FBF2F302FB13110A2291FBF2F230326F
:10020000D3B2421C104613700A2291FBF2F302FB98
:10021000131101F13002D3B2421C10461370704723
:1002200008B54020ADF8000003208DF8020014202E
:100230008DF803006946FD4800F0CCFF8020ADF842
:10024000000003208DF8020014208DF80300694699
:10025000F64800F0BFFF08BD1E2001E0411EC8B2F5
:100260000028FBD1704741F2883000E0401E002892
:10027000FCD1704700B58020EC4910310860402067
:100280000860FFF7E9FFE9480830006808B9012075
:1002900000E0002000F0800008B1002000BD8020B8
:1002A000E24914310860FFF7D7FFE04808300068E2
:1002B00000F0800008B10020F0E78020DB49143115
:1002C0000860FFF7C9FF0120E8E700B54020D749E3
:1002D00014310860FFF7C0FF8020D4491431086052
:1002E000FFF7BAFF4020D14910310860FFF7B4FF93
:1002F0008020CE4910310860FFF7AEFF00BD00B589
:100300004020CA4914310860FFF7A6FF8020C74982
:1003100014310860FFF7A0FF4020C4491031086085
:10032000FFF79AFF4020C14914310860FFF794FF9E
:1003300000BD00B54020BD4914310860FFF78CFFB7
:100340008020BA4910310860FFF786FF4020B74986
:1003500010310860FFF780FF4020B4491431086075
:10036000FFF77AFF00BD00B54020B04914310860A6
:10037000FFF772FF8020AD4910310860FFF76CFF76
:100380004020AA4910310860FFF766FFA7480830EF
:10039000006800F0800038B14020A44914310860A2
:1003A000FFF75AFF002000BD4020A049143108602B
:1003B000FFF752FF0120F6E700B5024608231BE0D5
:1003C00040209A4914310860FFF746FF02F0800090
:1003D00020B1802095491031086003E080209349C6
:1003E000143108605006020EFFF736FF40208F4997
:1003F00010310860FFF730FF181EA3F10101CBB2E6
:10040000DED1402089491431086000BD00B50823C1
:100410000022802085491031086015E05006020E48
:100420004020824914310860FFF716FF40207F49C1
:1004300010310860FFF710FF7C480830006800F0BA
:10044000800008B142F00102181EA3F10101CBB2F5
:10045000E4D14020754914310860104600BD70B5E4
:1004600006460C461546FFF705FF08B9002070BD8B
:100470003046FFF7A1FFFFF776FF18B9FFF725FF1A
:100480000020F4E72046FFF797FFFFF76CFF2846B0
:10049000FFF792FFFFF767FFFFF717FFFFF7E3FE96
:1004A0000120E4E770B504460D46FFF7E3FE08B906
:1004B000002070BD2046FFF77FFFFFF754FF30B9E3
:1004C000FFF703FF01205A4908700020F1E7284692
:1004D000FFF772FFFFF747FFFFF7CCFE611CC8B2C2
:1004E000FFF76AFFFFF73FFFFFF790FF0646FFF7B2
:1004F00020FFFFF7EAFE3046DBE708B501213C208C
:1005000000F0D2FB4FF40070ADF8000018208DF819
:10051000030003208DF802006946464800F05AFEA9
:100520004FF48060ADF8000004208DF803006946A8
:10053000404800F04FFE08BD00B587B001214FF4E0
:10054000904000F0B1FB0020ADF80400ADF80600CB
:100550004FF40070ADF808000020ADF80A0001A9C2
:10056000354800F0A2FC4FF4E13003900020ADF8D4
:100570001000ADF81200ADF81400ADF818000C2012
:10058000ADF8160003A92C4800F035FC40F22551C7
:10059000294800F072FD012240F22551264800F062
:1005A000A7FC0121244800F097FC07B000BD01B56D
:1005B00002E00098401E009000980028F9D108BD84
:1005C00001B509E0002000E0401C4CF250318842A7
:1005D000FAD30099491E009100990029F2D108BD73
:1005E00010B504462146144800F0E3FC0120FFF753
:1005F000E7FF10BD00B500226B21D020FFF72FFFD1
:1006000007221921D020FFF72AFF06221A21D02025
:10061000FFF725FF18221B21D020FFF720FF012222
:100620001C21D020FFF71BFF00BD0000000C014083
:1006300009000020000801400038014000B53C21BD
:10064000D020FFF72FFFD44908703B21D020FFF7BF
:1006500029FFD149487008460078497840EA0120CE
:1006600000B2CE4908800846B0F90000A42190FBF2
:10067000F1F000B2C94908803E21D020FFF712FFF7
:10068000C54988703D21D020FFF70CFFC249C870D2
:1006900008468078C97840EA012000B2C049088045
:1006A0000846B0F90000A42190FBF1F000B2BC496B
:1006B00008804021D020FFF7F5FEB74908713F219F
:1006C000D020FFF7EFFEB449487108460079497918
:1006D00040EA012000B2B34908800846B0F90000A2
:1006E000A42190FBF1F000B2AE49088000BD2DE9D5
:1006F000F0414421D020FFF7D5FEA74908704321DF
:10070000D020FFF7CFFEA44948700846007849780A
:1007100040EA012000B2A14908800846B0F9000073
:1007200001F081F806464FF066329F4B00F0F4FE70
:10073000044601F049F800B2984908804621D020CB
:10074000FFF7B0FE944988704521D020FFF7AAFE3C
:100750009149C87008468078C97840EA012000B203
:100760008F4908800846B0F9000001F05CF80646A1
:100770004FF066328C4B00F0CFFE044601F024F8B7
:1007800000B2874908804821D020FFF78BFE8249BC
:1007900008714721D020FFF785FE7F494871084640
:1007A0000079497940EA012000B27E490880084674
:1007B000B0F9000001F037F806464FF066327A4B88
:1007C00000F0AAFE044600F0FFFF00B27549088061
:1007D000BDE8F08100B502223721D020FFF73FFEAF
:1007E0000A20FFF7EDFE01220A211820FFF737FE4D
:1007F0000A20FFF7E5FE03211820FFF753FE6649A4
:10080000087004211820FFF74DFE63494870084620
:100810000078497840EA012000B26049088005214B
:100820001820FFF73FFE5C49887006211820FFF76B
:1008300039FE5949C87008468078C97840EA0120D5
:1008400000B25749088007211820FFF72BFE5249B4
:10085000087108211820FFF725FE4F494871084606
:100860000079497940EA012000B24E49088000BD74
:1008700070B506460D463046FFF7B2FE2846FFF734
:10088000AFFE3A20FFF7ACFE002405E04749085DC3
:10089000FFF7A6FE601CC4B2042CF7DB2020FFF794
:1008A0009FFE2020FFF79CFE70BDFFF726FEFFF79E
:1008B00043FEFFF7B5FC0A20FFF782FEFFF79AFE22
:1008C00068E0FFF7BBFE3548B0F900103748FFF786
:1008D0007DFC58214120FFF7CBFF3148B0F90010D3
:1008E0003248FFF773FC59214120FFF7C1FF2D4823
:1008F000B0F900102D48FFF769FC5A214120FFF79D
:10090000B7FFFFF7F4FE2548B0F900102748FFF7BE
:100910005DFC58214720FFF7ABFF2148B0F90010DC
:100920002248FFF753FC59214720FFF7A1FF1D483C
:10093000B0F900101D48FFF749FC5A214720FFF786
:1009400097FFFFF747FF1548B0F900101748FFF76A
:100950003DFC58214D20FFF78BFF1148B0F90010E6
:100960001248FFF733FC59214D20FFF781FF0D4856
:10097000B0F900100D48FFF729FC5A214D20FFF770
:1009800077FF0D20FFF72CFE0A20FFF729FE0A2033
:10099000FFF716FE95E70000280000200A0000205F
:1009A0000C0000200E00002066663040050000208C
:1009B000704700BFFEE700BFFEE700BFFEE700BFD5
:1009C000FEE770477047704770470000DF480068D7
:1009D00040F00100DD49086008464068DC490840F5
:1009E000DA49486008460068DA490840D749086093
:1009F0000846006820F4802008600846406820F41B
:100A0000FE0048604FF41F0088607047CF490968B6
:100A100021F48031CD4A11601146096821F480210A
:100A20001160B0F5803F03D0B0F5802F0ED106E005
:100A3000C649096841F48031C44A116007E0C349DE
:100A4000096841F4A021C14A116000E000BF00BF65
:100A5000704710B501460022002300204A11012AE8
:100A600002D1BA4C236806E0022A02D1B74C236AAD
:100A700001E0B64C636A01F01F02012494401C405F
:100A80000CB1012000E0002010BD38B5002000901E
:100A90000024002500BF3120FFF7DBFF054600984A
:100AA000401C00900098B0F5A06F01D0002DF2D04E
:100AB0003120FFF7CEFF08B1012400E000242046DA
:100AC00038BD01460020A14A106820F0F80040EA35
:100AD000C10010607047A0490860704702460020BE
:100AE0009A4B586820F47C1042EA01031843974B54
:100AF0005860704798490866704701460020934A3D
:100B0000506820F003000843506070478F484068E9
:100B100000F00C007047014600208C4A506820F01D
:100B2000F00008435060704701460020874A506833
:100B300020F4E06008435060704701460020834A7B
:100B4000506820F4605040EAC1005060704729B1FD
:100B50007E4A527A02437D4B5A7204E07B4A527AB3
:100B600082437A4B5A7270477B49D831086070478C
:100B700001460020754A506820F440400843506008
:100B800070470021714A20321170704A82F820109B
:100B9000012802D004280AD104E001216B4A203246
:100BA000117005E00521694A2032117000E000BF94
:100BB00000BF70476949086070476449096A01438A
:100BC000624A11627047654944390860704730B520
:100BD00000210022002400235C4D6D6805F00C010B
:100BE00021B1042905D0082923D105E05C4D056019
:100BF00022E05B4D05601FE0544D6D6805F47012F6
:100C0000524D6D6805F48034022505EB92421CB903
:100C1000544D554305600BE04C4D6D6805F40035AF
:100C20001DB1504D5543056002E04D4D55430560E3
:100C300002E04B4D056000BF00BF444D6D6805F0FC
:100C4000F0010909484D6B5C0568DD4045603F4D8A
:100C50006D6805F4E061090A434D6B5C4568DD4051
:100C600085603A4D6D6805F46051C90A3E4D6B5C74
:100C70004568DD40C560354D6D6805F44041890B20
:100C80003A4D6B5CC568B5FBF3F5056130BD29B124
:100C90002E4A526902432D4B5A6104E02B4A526995
:100CA00082432A4B5A61704729B1284A926902430C
:100CB000264B9A6104E0254A92698243234B9A614C
:100CC000704729B1214AD2690243204BDA6104E01E
:100CD0001E4AD26982431D4BDA61704729B11B4A13
:100CE000D2680243194BDA6004E0184AD2688243A2
:100CF000164BDA60704729B1144A12690243134B4C
:100D00001A6104E0114A12698243104B1A6170475C
:100D100012494039086070470F49C86470470B4951
:100D2000C87170470948406A40F0807007494862BE
:100D3000704701460020054A92680A400AB1012026
:100D400000E000207047014988727047001002409F
:100D50000000FFF8FFFFF6FE00004242800442421E
:100D600000127A0000093D0012000020220000203D
:100D700010B50446E248844209D101218803FFF7F7
:100D8000ADFF00214FF48040FFF7A8FF32E0DD48BF
:100D9000844209D101214804FFF7ADFF00214FF43F
:100DA0000030FFF7A8FF25E0D748844209D1012190
:100DB0008804FFF7A0FF00214FF48020FFF79BFF7E
:100DC00018E0D248844209D10121C804FFF793FFFB
:100DD00000214FF40020FFF78EFF0BE0CC48844247
:100DE00008D101210805FFF786FF00214FF480108C
:100DF000FFF781FF10BD2DE9F04786B005460E468E
:100E00000024A24600BF00BF0027B08900B100BF88
:100E10002F462C8A4CF6FF700440F08804432C8245
:100E2000AC894EF6F3100440B088318908437189CB
:100E300008430443AC81AC8A4FF6FF400440B089BC
:100E40000443AC8201A8FFF7C2FEAD48874202D13D
:100E5000DDF810A001E0DDF80CA00AEBCA0000EB01
:100E60000A1031688900B0FBF1F86420B8FBF0F09B
:100E700004012009642101FB1089322000EB0910D4
:100E8000B0FBF1F000F00F0004432C8106B0BDE888
:100E9000F0874FF41651016000218180C1800181EB
:100EA0000C21418100218181704710B5024600204C
:100EB000108A4FF2FF0318400B884C8823438C881C
:100EC0002343CC8823431843108210BD00210180A6
:100ED00041808180C180704721B1828942F40052F3
:100EE000828104E082894DF6FF731A408281704747
:100EF000F0B50346002400260025002040F66A17BE
:100F0000B94200D100BF1846C1F3421401F01F06D8
:100F1000012707FA06F5012C01D10C3004E0022C60
:100F200001D1103000E014301AB107682F43076078
:100F300002E00768AF430760F0BD1AB1838A0B4334
:100F4000838202E0838A8B4383827047028A4FF652
:100F5000F0731A400282028A0A4302827047828931
:100F60004FF2FF731A40828182890A43828170475F
:100F700021B1828942F00202828104E082894FF627
:100F8000FD731A4082817047028A4FF6DF731A4060
:100F90000282028A0A430282704721B1028A42F425
:100FA0008042028204E0028A4BF6FF731A400282FA
:100FB0007047C1F308028280704701468888C0F3F9
:100FC00008007047818941F0010181817047028BDF
:100FD000D2B20283028B42EA012202837047028B63
:100FE00002F47F420283028B0A430283704721B1DD
:100FF000828A42F02002828204E0828A4FF6DF7306
:101000001A408282704721B1828A42F010028282A5
:1010100004E0828A4FF6EF731A408282704721B152
:10102000828A42F00802828204E0828A4FF6F773D5
:101030001A4082827047828A4FF6FB731A4082827E
:10104000828A0A438282704721B1828A42F0020278
:10105000828204E0828A4FF6FD731A4082827047D2
:1010600002460020B1F5007F00D100BF13880B407D
:101070000BB1012000E00020704701F40072B2F5CE
:10108000007F00D100BFCA430280704770B502469E
:10109000002400230025002040F66A16B14200D14A
:1010A00000BFC1F3421501F01F03012606FA03F346
:1010B000012D02D19689334006E0022D02D1168A15
:1010C000334001E0968A33400C12012606FA04F4FC
:1010D0001688344013B10CB1012000E0002070BD2F
:1010E00010B50022002340F66A14A14200D100BFCF
:1010F0000A1201249440A3B2DC43048010BD000016
:10110000003801400044004000480040004C0040CE
:101110000050004010B50446C448844208D1012163
:101120000420FFF7DBFD00210420FFF7D7FD46E098
:10113000BF48844208D101210820FFF7CFFD0021DC
:101140000820FFF7CBFD3AE0BA48844208D10121DC
:101150001020FFF7C3FD00211020FFF7BFFD2EE098
:10116000B548844208D101212020FFF7B7FD0021B6
:101170002020FFF7B3FD22E0B048844208D10121CE
:101180004020FFF7ABFD00214020FFF7A7FD16E050
:10119000AB48844208D101218020FFF79FFD002148
:1011A0008020FFF79BFD0AE0A648844207D1012179
:1011B0008015FFF793FD0021A015FFF78FFD10BDEF
:1011C00010B501210846FFF789FD00210120FFF736
:1011D00085FD10BD2DE9F0410246002500260020C6
:1011E00000230024002791F803C00CF00F0591F8AC
:1011F00003C00CF0100CBCF1000F03D091F802C03A
:101200004CEA050591F800C0BCF1000F31D014681C
:1012100000202BE04FF0010C0CFA00F3B1F800C0F5
:101220000CEA03069E4220D183004FF00F0C0CFA0B
:1012300003F7BC4305FA03FC4CEA040491F803C02D
:10124000BCF1280F06D14FF0010C0CFA00FCC2F8DB
:1012500014C00AE091F803C0BCF1480F05D14FF06B
:10126000010C0CFA00FCC2F810C0401C0828D1D3B5
:101270001460B1F800C0BCF1FF0F34DD54680020E9
:101280002EE000F1080C4FF0010808FA0CF3B1F859
:1012900000C00CEA03069E4221D183004FF00F0CE0
:1012A0000CFA03F7BC4305FA03FC4CEA040491F87A
:1012B00003C0BCF1280F05D100F1080C08FA0CF8A6
:1012C000C2F8148091F803C0BCF1480F07D100F1B7
:1012D000080C4FF0010808FA0CF8C2F81080401C06
:1012E0000828CED35460BDE8F0814FF6FF7101802D
:1012F000022181700421C17070470246002093686A
:101300000B400BB1012000E00020704701468868C7
:1013100080B2704702460020D3680B400BB1012019
:1013200000E0002070470146C86880B27047016144
:101330007047416170470AB1016100E04161704747
:10134000C16070474FF480320A43826181618261DB
:10135000826982697047024600203B4B18684FF64D
:101360008073184040EA02100843374B18607047FA
:101370003649C8617047F0B50A46002300240021B1
:101380000025314E7168C0F3034583B200F4401666
:10139000B6F5401F08D121F070612B4E766826F01B
:1013A0007066294F7E6012E000F48016B6F5801F4B
:1013B00006D1032606FA05F4A14341F0706106E068
:1013C000460D360103FA06F6B14341F0706122B1D1
:1013D000460D360103FA06F631431B4E7160F0BD2F
:1013E00030B500228B071C0F0F2303FA04F2164BB3
:1013F00008338C1053F824309343134C08348D1069
:1014000044F8253023468C1053F824308C07240FE1
:1014100000FA04F423430C4C08348D1044F82530B2
:1014200030BD0A49DC310860704700000008014007
:10143000000C014000100140001401400018014060
:10144000001C01400020014000000140000020423B
:1014500070470B4880470B4981F308880A480047CA
:10146000FEE7FEE7FEE7FEE7FEE7FEE7FEE7FEE754
:10147000FEE7FEE705480649064A074B70470000AD
:10148000511400089806002031010008980000203F
:1014900098060020980200209802002070477047AC
:1014A0007047754600F02CF8AE4605006946534675
:1014B00020F00700854618B020B5FFF7DBFFBDE838
:1014C00020404FF000064FF000074FF000084FF0AB
:1014D000000B21F00701AC46ACE8C009ACE8C0093C
:1014E000ACE8C009ACE8C0098D46704710B50446A9
:1014F000AFF300802046BDE81040FEF760BE00005C
:10150000004870473400002001491820ABBEFEE7B8
:1015100026000200704700002DE9C04130B4DFF81A
:10152000A0C23CEA111418BF3CEA131400F0EC808E
:1015300081EA03051CEA111444EAD57418BF1CEAB9
:10154000131500F0C780A4EB05044FF0004545EAF1
:10155000C12145EAC32341EA505143EA525304F101
:101560007F74994204F500344FEAC0204FEAC2224A
:1015700008BF904200F09C804FEA13650FF24016BE
:10158000765D4FEA134506FB05F7C7F1807706FB4A
:1015900007F74FEAD737A7FB03687642C8F58038CC
:1015A000A7FB06CE38BFA8F1010807FB08E64FF0FD
:1015B000000EA6FB028CE6FB03CEDCF1000CCEF1A4
:1015C000004E38BFAEF1010EA6FB0C584FF00007DD
:1015D0004FF00005E6FB0E87A1FB08C6A0FB07CE77
:1015E00016EB0E0645F10005E1FB076515F1E04E2F
:1015F0007EBFA4F580345FEA46066D4116F1800790
:1016000045F100054FEA17274FEA066647EA0567E6
:10161000A6F1DE46B6F1805F4FEA15251FD93846A0
:1016200024F0010C05EBC471BCF1FE6F01EB0C1151
:1016300002D8F0BCBDE8008124425CBF01F5801EE9
:101640009EEAC47F02D4F0BCBDE80081244238D4B5
:10165000F0BCA1F1C041BDE8004100F049B94FEA3A
:10166000D22242EA43524FEAD323A7FB02864FEA33
:10167000D02040EA415007FB03661EEA0E0F4FEAF6
:10168000D12105FB026658BFA6EB0056B6EB00560B
:101690004FEA520E4EEAC37E18EB0E0E56EB530E77
:1016A000BDD518EB02085E417F1C55F10005B6E779
:1016B0004FF480154FF000074FF000064FF0000880
:1016C000ADE7F0BC4FF0000001F1C04101F0004176
:1016D000BDE8008111EA0C1F0CEA131500D00CE0E4
:1016E00013EA0C1F00F025804FF00000F0BC81EAE7
:1016F000030101F00041BDE80081F0BCBDE80041FC
:1017000081EA030100F0F4B8F0BCBDE8004170B517
:1017100000F0A0F8097EFC3E00F007B881EA030162
:101720004FF0000001F00041704781EA030100F032
:10173000DFB8F0BCBDE800414FF000002149704720
:10174000FFFDFBF9F7F5F4F2F0EEEDEBE9E8E6E486
:10175000E3E1E0DEDDDBDAD8D7D5D4D3D1D0CFCD0D
:10176000CCCBCAC8C7C6C5C4C2C1C0BFBEBDBCBB46
:10177000BAB9B8B7B6B5B4B3B2B1B0AFAEADACAB41
:10178000AAA9A8A8A7A6A5A4A3A3A2A1A09F9F9E1B
:101790009D9C9C9B9A9999989797969595949393CD
:1017A000929191908F8F8E8E8D8C8C8B8B8A898964
:1017B00088888787868585848483838282818180E7
:1017C0000000FF070000F87F4FEA41034FEA535340
:1017D000A3F58063D3F11E03C8BFD3F1210C0CDD48
:1017E0004FF0004242EAC12242EA505232FA03FC70
:1017F0008CEAE17CACEBE1707047102BC4BF002099
:10180000704703F5787CBCF1FF3F04D06FF00042D5
:1018100082EA2100704770B500F01CF849922480DC
:1018200000207047F2E710F0004248BF4042B0FA93
:1018300080F310FA03F10AD0C3F11D0303F58063AE
:101840004FEA415002EB035202EBD12170474FF0B7
:10185000000070470EF1020E2EF0030E5EF8046BCE
:10186000364205D4012A43EB030515F5001F12D8B3
:10187000012841EB010C1CF5001F0CD80ED14FEADA
:10188000D17C15F5001F0CEB4C0C0CF1020C08BFC1
:101890004CEBD37C04E04FF0080C01E04FEAD37C22
:1018A0000CEB4C0526FA05F606F00706B6F1040C1B
:1018B00006D20EEB860CBDE870404CF0010C604780
:1018C000DFE80CF0090B02024FF000414FF000007E
:1018D000A1F5002170BD19461046012851EB010405
:1018E00018BFD4F5001484BF002001F0004170BD82
:1018F0000808A0F500114FEA310170471C190008D3
:1019000000000020280000006C01000844190008B5
:101910002800002070060000880100080000000078
:1019200000000000000000000000000000000000B7
:10193000000001020304010203040607080902046F
:041940000608000095
:0400000508000131BD
:00000001FF
