:020000040800F2
:10000000F0070020150200089D1E0008350E0008AC
:10001000F31D0008110D00087926000800000000FB
:100020000000000000000000000000003D2000086B
:10003000150D000800000000251F000851210008D0
:100040002F0200082F0200082F0200082F020008CC
:100050002F0200082F0200082F0200082F020008BC
:100060002F0200082F0200082F0200082F020008AC
:100070002F0200082F0200082F0200082F0200089C
:100080002F0200082F0200082F0200082F0200088C
:100090002F0200082F0200082F0200082F0200087C
:1000A0002F020008112200082F0200082F0200086A
:1000B0002F0200082F0200082F0200082F0200085C
:1000C0002F0200082F0200082F0200082F0200084C
:1000D0002F0200082F0200082F0200082F0200083C
:1000E0002F0200082F0200082F0200082F0200082C
:1000F0002F0200082F0200082F0200082F0200081C
:100100002F0200082F020008952200082F02000885
:100110002F0200082F0200082F0200082F020008FB
:100120002F0200082F0200082F0200082F020008EB
:1001300000F002F800F05FF80AA090E8000C82449A
:100140008344AAF10107DA4501D100F054F8AFF277
:10015000090EBAE80F0013F0010F18BFFB1A43F0A5
:100160000103184734760000547600000A444FF02B
:10017000000C10F8013B13F0070408BF10F8014B06
:100180001D1108BF10F8015B641E05D010F8016B4B
:10019000641E01F8016BF9D113F0080F1EBF10F8AF
:1001A000014BAD1C0C1B09D16D1E58BF01F801CBD2
:1001B000FAD505E014F8016B01F8016B6D1EF9D555
:1001C0009142D6D37047000000230024002500266A
:1001D000103A28BF78C1FBD8520728BF30C148BFAA
:1001E0000B607047642900F06780002070471FB5DE
:1001F0001FBD10B510BD00F0CBFA1146FFF7F7FF99
:1002000004F052F800F0E9FA03B4FFF7F2FF03BC80
:1002100002F00DFB0948804709480047FEE7FEE76A
:10022000FEE7FEE7FEE7FEE7FEE7FEE7FEE7FEE7A6
:1002300004480549054A064B70470000552100084F
:1002400031010008F0010020F0070020F003002039
:10025000F0030020704710B54C1084EA530404D515
:100260004042C1F1000138BF491E1B4204D5524231
:10027000C3F1000338BF5B1E00F02EF914F0804F6D
:1002800004D04042C1F1000138BF491E14F0004FB4
:1002900004D05242C3F1000338BF5B1E10BD000002
:1002A0000FB4044910B503AA029800F0F1F910BC8C
:1002B0005DF814FB4C0000202DE9F04106460024B7
:1002C00010687529314616A510D0AFF300800028BC
:1002D00002DA404213A507E031688A0701D512A56A
:1002E00002E0490704D511A5012401E0AFF3008025
:1002F00000210A2206F1240709E0B0FBF2FCB0FB62
:10030000F2F302FB1C00303078541846491C0028D8
:10031000F3D123462A463046BDE8F04100F05EB9ED
:10032000000000002D0000002B0000002000000055
:100330002DE9F05F894604464FF0000ADFF824B14A
:10034000FB44C0F820A02046E168884700287DD003
:10035000252806D0D4E901219047206A401C20625C
:10036000F1E700255F462046E168884720280646D9
:1003700007DB312E05D2B81910F8200C08B105435F
:10038000F1E7A80701D525F00405C4F81CA0002753
:10039000C4F818A02A2E09D0304602F041FA38B32A
:1003A00004EB8708303EC8F8186019E059F8041BC0
:1003B000204604EB87029161E1688847012F0646D9
:1003C00018D1E069002820DA25F020051DE0D8F8D2
:1003D000180000EB800006EB40003038C8F8180029
:1003E0002046E1688847064602F01AFA0028EED156
:1003F000012F0AD02E2E08D12046E16888477F1CA5
:100400000646022F45F02005C4DBA069002803DA68
:10041000404245F00105A061E80701D025F0100534
:10042000A6B1A6F14100192802D8203645F400658E
:100430004A463146204625604D46FFF7D3FE60B15F
:10044000012807D0ED1D25F0070000E007E000F1CE
:10045000080978E705F1040975E730467AE7206A6C
:10046000BDE8F09F0273000040EA010310B59B074E
:100470000FD1042A0DD310C808C9121F9C42F8D00E
:1004800020BA19BA884201D9012010BD4FF0FF30BF
:1004900010BD1AB1D30703D0521C07E0002010BDD5
:1004A00010F8013B11F8014B1B1B07D110F8013B61
:1004B00011F8014B1B1B01D1921EF1D1184610BD42
:1004C00002F0FF0343EA032242EA024200F0F4B8DA
:1004D000704770477047704753EA020C00F069801C
:1004E0002DE9F04B4FF00006002B1FBFB3FA83F548
:1004F00003FA05F424FA05F65E4012BF1643B2FA79
:1005000082F502FA05F4C5F120051EBF22FA05FCAA
:1005100044EA0C04203556EA044C4FEA144418BF50
:10052000641C4FF000084FF00009904271EB030C7F
:1005300039D3002919BFB1FA81F701FA07F6B0FAE9
:1005400080F700FA07F6C7F120071EBF20FA07FC64
:1005500046EA0C062037B6FBF4FCA7EB0507103F74
:1005600007F01F0BCBF120060CFA0BFB2CFA06F65A
:1005700044BFB3460026202FA4BF5E464FF0000BB9
:100580005BEA060C08BF4FF0010B19EB0B09ABFB44
:10059000027C48EB0608C01B06FB02CC0BFB03CC1D
:1005A00071EB0C01C1E70B46024641464846BDE8E7
:1005B000F08B13B54FF000004FF00001AFF3008057
:1005C000BDE81C40704710B500F096F8006810BDFB
:1005D00010B5044600F090F8046010BD2DE9F04716
:1005E0000D4699469246044600F1240801688806A3
:1005F00004D5E06921F01001216000E00120A8424B
:1006000001DD471B00E00027A1697A1902EB090010
:10061000081AA0612078C00602D42046AFF30080FB
:10062000002608E0D4E901211AF806009047206A64
:10063000401C761C20624E45F4DB2078C0060AD5AB
:100640002046AFF3008006E0D4E901213020904736
:10065000206A401C2062381EA7F10107F4DC07E085
:10066000D4E9012118F805009047206A401C206257
:10067000281EA5F10105F3DC2046AFF300802078A9
:10068000000602D50220BDE8F0870120FBE700004C
:10069000074B70B50D467B4400F037F804462846FA
:1006A00000F046F810B14FF0FF3070BD204670BD2D
:1006B000473500004FF000020429C0F0128010F00E
:1006C000030C00F03B80CCF1040CBCF1020F18BF0E
:1006D00000F8012BA8BF20F8022BA1EB0C0100F0C1
:1006E0002DB85FEAC17C24BF00F8012B00F8012B74
:1006F00048BF00F8012B7047004870478C0100206C
:1007000001694A1C02610878704700B58FB0CDE9D5
:1007100001310021059105497944CDE903101146C5
:100720006846FFF705FE0FB000BD0000E5FFFFFFC4
:10073000007B00F0800070474FF0000200B51346C8
:1007400094469646203922BFA0E80C50A0E80C50F1
:10075000B1F12001BFF4F7AF090728BFA0E80C50A2
:1007600048BF0CC05DF804EB890028BF40F8042B9B
:1007700008BF704748BF20F8022B11F0804F18BF08
:1007800000F8012B70470000004870478C010020E2
:100790007546FFF7F9FFAE4605006946534620F05F
:1007A0000700854618B020B5FFF742FDBDE82040A0
:1007B0004FF000064FF000074FF000084FF0000B1D
:1007C00021F00701AC46ACE8C009ACE8C009ACE8D0
:1007D000C009ACE8C0098D4670470446AFF30080FD
:1007E0002046FFF711FD70B506460D461C2D00DDB5
:1007F00070BD002404E0305D04F0BCFF601CC4B296
:10080000AC42F8DB00BFF3E72DE9F84F05460E4692
:1008100017469846DDE90AAB0024AA222146641C4B
:100820003F4842542146641C425402222146641C23
:10083000425400222146641C425400959DF8012038
:100840002146641C42549DF800202146641C4254F9
:1008500000969DF801202146641C42549DF800201A
:100860002046611CCCB22E490A5400979DF8012005
:100870002046611CCCB22A490A549DF8002020462B
:10088000611CCCB226490A54CDF800809DF80120A5
:100890002046611CCCB222490A549DF80020204613
:1008A000611CCCB21E490A54CDF800A09DF801206D
:1008B0002046611CCCB21A490A549DF800202046FB
:1008C000611CCCB216490A54CDF800B09DF8012045
:1008D0002046611CCCB212490A549DF800202046E3
:1008E000611CCCB20E490A54201FC8704FF0000999
:1008F000002006E00A49095C494401F0FF09411C57
:10090000C8B2A042F6DB2046611CCCB2044901F813
:10091000009021460248FFF766FFBDE8F88F00000F
:10092000480100202DE9F04F85B00020049003908D
:100930000290E148B0F9000005F00CFEDF490860C4
:10094000DF48B0F9000005F005FEDE490860DE482A
:10095000B0F9000005F0FEFDDC490860DC48B0F9A4
:10096000000005F0F7FDDB490860DB48B0F9000046
:1009700005F0F0FDD9490860D948B0F9000005F04C
:10098000E9FDD8490860D849CC48006805F00EFE5A
:1009900007D24FF08D41C948006805F0A9FC0490CA
:1009A0000FE0D249C548006805F03CFF05464FF00E
:1009B0008D4105F09DFC04464FF07E5105F027FF68
:1009C0000490C949BF48006805F0F0FD07D24FF018
:1009D0008D41BC48006805F08BFC03900FE0C349D3
:1009E000B848006805F01EFF05464FF08D4105F040
:1009F0007FFC04464FF07E5105F009FF0390BA4991
:100A0000B248006805F0D2FD07D24FF08D41AF48E3
:100A1000006805F06DFC02900AE0B449AB4800683C
:100A200005F000FF04464FF08D4105F061FC029097
:100A3000039805F0C3FB82468B46029805F0BEFB87
:100A400052465B46CDE9000102F090F98046002253
:100A5000A74B05F0D9F80646A64AA74B04F07CFF41
:100A6000044604F097FEA5490860029805F0A6FB2D
:100A7000CDE90001049805F0A1FB0646DDE900235D
:100A800002F074F980460022994B05F0BDF8044647
:100A9000984A994B04F060FF824604F07BFE984927
:100AA0000860049805F08AFB04460D46039805F09B
:100AB00085FB064622462B4602F058F98046002266
:100AC0008B4B05F0A1F882468A4A8B4B04F044FF19
:100AD000CDE9000104F05EFE8A4908608249794848
:100AE000006805F063FD03D285480068844908600A
:100AF0007D497448006805F059FE05D280480068B9
:100B000080F000407E49086077496C48006805F035
:100B10004DFD03D2794800687849086072496748FA
:100B2000006805F043FE05D27448006880F000407C
:100B3000724908606C496548006805F037FD03D2CA
:100B4000704800686F49086067496048006805F0B0
:100B50002DFE05D26B48006880F0004069490860AE
:100B60004FF08E415B48006805F020FD10D25948D7
:100B7000006805F023FB06464FF06632624B04F036
:100B8000EBFE81F00041044604F004FE5149086088
:100B90004FF08E414F48006805F008FE12D24D48D4
:100BA00001685A4805F03EFE804605F007FB064600
:100BB0004FF06632544B04F0CFFE044604F0EAFDD9
:100BC000444908604FF08E414448006805F0EEFC4F
:100BD00010D24248006805F0F1FA06464FF066323E
:100BE000494B04F0B9FE81F00041044604F0D2FD07
:100BF0003A4908604FF08E413848006805F0D6FD4C
:100C000012D236480168414805F00CFE804605F0D6
:100C1000D5FA06464FF066323B4B04F09DFE044683
:100C200004F0B8FD2D4908604FF08E412D48006852
:100C300005F0BCFC10D22B48006805F0BFFA064650
:100C40004FF06632304B04F087FE81F000410446DD
:100C500004F0A0FD234908604FF08E412148006850
:100C600005F0A4FD12D21F480168284805F0DAFDFE
:100C7000804605F0A3FA06464FF06632224B04F098
:100C80006BFE044604F086FD1649086011480168B1
:100C90001A48006800F0D0F8104801681848006849
:100CA00000F054FA0F4801681648006800F0D8FBBD
:100CB00005B0BDE8F08F000024000020880000206F
:100CC000260000208C00002028000020900000203A
:100CD0002A000020940000202C0000209800002012
:100CE0002E0000209C00002000F8FF460000404736
:100CF000008066404AD8124DFB210940A000002028
:100D0000A4000020A80000206666304000FF7F4756
:100D100000BFFEE770472DE9F0410246002500269E
:100D2000002000230024002791F803C00CF00F05D9
:100D300091F803C00CF0100CBCF1000F03D091F837
:100D400002C04CEA050591F800C0BCF1000F31D09B
:100D5000146800202BE04FF0010C0CFA00F3B1F8FE
:100D600000C00CEA03069E4220D183004FF00F0C16
:100D70000CFA03F7BC4305FA03FC4CEA040491F8AF
:100D800003C0BCF1280F06D14FF0010C0CFA00FC97
:100D9000C2F814C00AE091F803C0BCF1480F05D1B5
:100DA0004FF0010C0CFA00FCC2F810C0401C0828DF
:100DB000D1D31460B1F800C0BCF1FF0F34DD54682A
:100DC00000202EE000F1080C4FF0010808FA0CF3A7
:100DD000B1F800C00CEA03069E4221D183004FF017
:100DE0000F0C0CFA03F7BC4305FA03FC4CEA0404AD
:100DF00091F803C0BCF1280F05D100F1080C08FAE6
:100E00000CF8C2F8148091F803C0BCF1480F07D168
:100E100000F1080C4FF0010808FA0CF8C2F8108035
:100E2000401C0828CED35460BDE8F0814161704772
:100E30000161704700BFFEE72DE9FF5F83468A46E8
:100E4000AE480168504605F0EDFC019005F0B6F99A
:100E50008046AB4AAB4B04F0D7FE04460D46AA4889
:100E6000006805F0ABF9064622462B4604F0C4FCA8
:100E7000CDE9020104F08EFCA3490860A34988680B
:100E800005F09CF906460F46A049486805F096F91A
:100E90009F4AA04BCDE9020104F0B4FF80463246E0
:100EA0003B4605F0A1F8044604F074FC9A4908603A
:100EB0009648C06880F0004048609448C06880F060
:100EC000004088609548C860086805F077F98C4A4A
:100ED0008C4BCDE9020104F097FE06460F468B4984
:100EE000086805F06BF9804632463B4604F084FC06
:100EF000044604F04FFC854908608749486805F0BE
:100F00005DF97F4A7F4BCDE9020104F07DFE044686
:100F10000D467E49486805F051F9064622462B46A3
:100F200004F06AFC804604F035FC784948607A4950
:100F3000886805F043F98046714A724B04F064FEFC
:100F400004460D467149886805F038F90646224680
:100F50002B4604F051FCCDE9020104F01BFC6B4967
:100F600088606D49C86805F029F9654A654BCDE987
:100F7000020104F049FE04460D466449C86805F0C4
:100F80001DF9064622462B4604F036FC804604F046
:100F900001FC5E49C8605C480168584605F042FCA7
:100FA0005F4908605F48007805F0ECFA044657484E
:100FB0000168204605F02EFB5B490860594800781F
:100FC00005F0E0FA044651488168204605F022FB0E
:100FD000564908605348007805F0D4FA81465248D3
:100FE0000168484605F016FB804605F0E7F806461E
:100FF00000224F4B04F000FC044604F0CBFB4D49AB
:101000000860084601684848006805F071F94A49D7
:101010000860484801684548006805F069F9474993
:10102000086041480068464908603E48007805F07D
:10103000A9FA044635484168204605F0EBFA4149D3
:1010400008603F4801683C48006805F0E3FA044640
:101050002E480168204605F0DAFB2C490860394823
:1010600001683548006805F0D5FA0446274841680C
:10107000204605F0CCFB25494860314801682F48DF
:10108000006805F0C7FA044620488168204605F04C
:10109000BEFB1E4988602B4801682848006805F09F
:1010A000B9FA04461948C168204605F0B0FB174953
:1010B000C8601B4801682048006805F0ABFA044688
:1010C00011480168204605F0A5F80F49086014484A
:1010D00001681A48006805F09DFA0446074801684F
:1010E000204605F097F80549086008460168504613
:1010F00005F098FB14490860BDE8FF9FBC00002084
:10110000FA7E6ABC7493883FAC000020F000002097
:10111000FCA9F1D24D62503F7C010020A69B443BCC
:10112000C8000020B8000020D4000020D800002013
:101130000000E03FDC000020E0000020E400002090
:10114000E8000020EC000020940000202DE9FF5F63
:1011500083468A46AE480168504605F063FB01901D
:1011600005F02CF88046AB4AAB4B04F04DFD04462D
:101170000D46AA48006805F021F8064622462B468F
:1011800004F03AFBCDE9020104F004FBA349086036
:10119000A349886805F012F806460F46A04948683A
:1011A00005F00CF89F4AA04BCDE9020104F02AFE9D
:1011B000804632463B4604F017FF044604F0EAFA44
:1011C0009A4908609648C06880F00040486094489A
:1011D000C06880F0004088609548C860086804F0E6
:1011E000EDFF8C4A8C4BCDE9020104F00DFD064663
:1011F0000F468B49086804F0E1FF804632463B46C3
:1012000004F0FAFA044604F0C5FA854908608749F3
:10121000486804F0D3FF7F4A7F4BCDE9020104F018
:10122000F3FC04460D467E49486804F0C7FF0646B5
:1012300022462B4604F0E0FA804604F0ABFA7849E7
:1012400048607A49886804F0B9FF8046714A724B59
:1012500004F0DAFC04460D467149886804F0AEFFDC
:10126000064622462B4604F0C7FACDE9020104F0F7
:1012700091FA6B4988606D49C86804F09FFF654A20
:10128000654BCDE9020104F0BFFC04460D466449FC
:10129000C86804F093FF064622462B4604F0ACFAD9
:1012A000804604F077FA5E49C8605C480168584699
:1012B00005F0B8FA5F4908605F48007805F062F908
:1012C000044657480168204605F0A4F95B490860C8
:1012D0005948007805F056F904465148816820467F
:1012E00005F098F9564908605348007805F04AF926
:1012F000814652480168484605F08CF9804604F062
:101300005DFF064600224F4B04F076FA044604F0D7
:1013100041FA4D490860084601684848006804F0F1
:10132000E7FF4A490860484801684548006804F0FA
:10133000DFFF4749086041480068464908603E4869
:10134000007805F01FF9044635484168204605F04D
:1013500061F9414908603F4801683C48006805F070
:1013600059F904462E480168204605F050FA2C49E8
:101370000860394801683548006805F04BF90446B3
:1013800027484168204605F042FA2549486031481F
:1013900001682F48006805F03DF90446204881683F
:1013A000204605F034FA1E4988602B480168284819
:1013B000006805F02FF904461948C168204605F079
:1013C00026FA1749C8601B4801682048006805F0E4
:1013D00021F9044611480168204604F01BFF0F491B
:1013E0000860144801681A48006805F013F90446BB
:1013F00007480168204604F00DFF054908600846CB
:101400000168504605F00EFA14490860BDE8FF9FD8
:10141000C0000020FA7E6ABC7493883FB0000020B0
:10142000F0000020FCA9F1D24D62503F7C01002069
:10143000A69B443BCC000020B8000020D400002034
:10144000D80000200000E03FDC000020E000002089
:10145000E4000020E8000020EC00002098000020BC
:101460002DE9FF5F83468A46AE480168504605F085
:10147000D9F9019004F0A2FE8046AB4AAB4B04F0D0
:10148000C3FB04460D46AA48006804F097FE0646D2
:1014900022462B4604F0B0F9CDE9020104F07AF9B6
:1014A000A3490860A349886804F088FE06460F46F1
:1014B000A049486804F082FE9F4AA04BCDE9020192
:1014C00004F0A0FC804632463B4604F08DFD044605
:1014D00004F060F99A4908609648C06880F00040BE
:1014E00048609448C06880F0004088609548C860B3
:1014F000086804F063FE8C4A8C4BCDE9020104F0CD
:1015000083FB06460F468B49086804F057FE804669
:1015100032463B4604F070F9044604F03BF9854935
:1015200008608749486804F049FE7F4A7F4BCDE94F
:10153000020104F069FB04460D467E49486804F048
:101540003DFE064622462B4604F056F9804604F03E
:1015500021F9784948607A49886804F02FFE80466E
:10156000714A724B04F050FB04460D46714988687D
:1015700004F024FE064622462B4604F03DF9CDE950
:10158000020104F007F96B4988606D49C86804F0EE
:1015900015FE654A654BCDE9020104F035FB0446B2
:1015A0000D466449C86804F009FE064622462B46EB
:1015B00004F022F9804604F0EDF85E49C8605C480A
:1015C0000168584605F02EF95F4908605F480078C9
:1015D00004F0D8FF044657480168204605F01AF881
:1015E0005B4908605948007804F0CCFF0446514834
:1015F0008168204605F00EF8564908605348007887
:1016000004F0C0FF814652480168484605F002F8E0
:10161000804604F0D3FD064600224F4B04F0ECF860
:10162000044604F0B7F84D49086008460168484888
:10163000006804F05DFE4A49086048480168454872
:10164000006804F055FE4749086041480068464973
:1016500008603E48007804F095FF0446354841682C
:10166000204604F0D7FF414908603F4801683C48E4
:10167000006804F0CFFF04462E480168204605F0BC
:10168000C6F82C490860394801683548006804F0FC
:10169000C1FF044627484168204605F0B8F82549AF
:1016A0004860314801682F48006804F0B3FF0446E1
:1016B00020488168204605F0AAF81E4988602B481A
:1016C00001682848006804F0A5FF04461948C1686D
:1016D000204605F09CF81749C8601B48016820485F
:1016E000006804F097FF044611480168204604F0A2
:1016F00091FD0F490860144801681A48006804F019
:1017000089FF044607480168204604F083FD054927
:10171000086008460168504605F084F814490860DE
:10172000BDE8FF9FC4000020FA7E6ABC7493883F26
:10173000B4000020F0000020FCA9F1D24D62503F1F
:101740007C010020A69B443BD0000020B800002074
:10175000D4000020D80000200000E03FDC00002082
:10176000E0000020E4000020E8000020EC00002061
:101770009C00002008B50121142000F0E5FB4FF487
:101780000040ADF8000010208DF8030003208DF814
:10179000020069460848FFF7BEFA4FF4E050ADF882
:1017A000000010208DF8030003208DF80200694628
:1017B0000248FFF7B0FA08BD0008014000100140E0
:1017C00070B504460D4605B334B1012C0AD0022C85
:1017D0000ED0032C18D111E04FF400411C48FFF744
:1017E00027FB11E04FF480611A48FFF721FB0BE063
:1017F0004FF400611748FFF71BFB05E04FF48051E1
:101800001448FFF715FB00BF20E034B1012C0AD0CB
:10181000022C0ED0032C18D111E04FF400410C48DB
:10182000FFF704FB11E04FF480610A48FFF7FEFA6E
:101830000BE04FF400610748FFF7F8FA05E04FF4BA
:1018400080510448FFF7F2FA00BF00BF70BD0000EE
:10185000000801400010014010B500F0B5F88021EB
:101860006B2000F074FA642001F094FB00216B20DF
:1018700000F06DFA032000F028FA002000F01DFAB5
:10188000322000F047FA0021382000F060FA0021F1
:101890006A2000F05CFA0021232000F058FA802131
:1018A000372000F054FA752000F0B0F904463220D9
:1018B00000F013FA682C0CD15DB901216B2000F007
:1018C00046FA00216C2000F042FA322000F022FAA1
:1018D00001E0012010BD0020FCE72DE9FC41044699
:1018E0000D4616466B4606223B21682000F0ABF9F8
:1018F0000746BFB99DF801009DF8001040EA01209D
:1019000000B220809DF803009DF8021040EA0120FB
:1019100000B228809DF805009DF8041040EA0120DF
:1019200000B230803846BDE8FC812DE9FC41044618
:101930000D4616466B4606224321682000F083F9C7
:101940000746BFB99DF801009DF8001040EA01204C
:1019500000B220809DF803009DF8021040EA0120AB
:1019600000B228809DF805009DF8041040EA01208F
:1019700000B230803846BDE8FC81000010B5002080
:101980000E4908600E48006820F00F000C490860FE
:101990000846006840F00300086000200949C1F8CB
:1019A0008001012001F01CFB01200449086001F0C6
:1019B00017FB00200349C1F8840110BD84012142B6
:1019C000000801400000214208B50121042000F078
:1019D000BBFA10208DF803000320ADF800008DF84D
:1019E000020069460348FFF796F903210148FFF713
:1019F0001FFA08BD0008014010B500200E4908601C
:101A00000E48006820F00F000C4908600846006886
:101A100040F00300086001200949C1F8800101F08D
:101A2000DFFA01200449086001F0DAFA00200449D5
:101A3000C1F8840110BD000084012142000801406A
:101A40000000214270B5054600241748006820F0C8
:101A50000F00154908600846006840F0080008605B
:101A6000002616E0002011490860012001F0B8FAB4
:101A700001200F49C1F884016006040E0B48843828
:101A8000006808B1601CC4B2012001F0A9FA701C02
:101A9000C6B2082EE6DB15B9FFF7AEFF01E0FFF78F
:101AA0006DFF204670BD0000000801408401214206
:101AB0000000214270B504461348006820F00F0072
:101AC000114908600846006840F0030008600020E3
:101AD0000E490860002513E0E0090C49091F086061
:101AE0006006040E01200A49C1F8840101F078FA69
:101AF000002006490860012001F072FA681CC5B296
:101B0000082DE9DB70BD000000080140840121427E
:101B10000000214210B50F48006820F00F000D4969
:101B200008600846006840F00300086001200A4988
:101B300008600A49C1F8840101F052FA0020064900
:101B40000860012001F04CFA00200449C1F884012A
:101B500010BD000000080140800121420000214228
:101B600010B50E48006820F00F000C4908600846C8
:101B7000006840F003000860002009490860094936
:101B8000C1F88001012001F02BFA0120044908600E
:101B90000449C1F8800101F023FA10BD000801409A
:101BA000840121420000214210B50024144800683D
:101BB00020F00F00124908600846006840F0080055
:101BC000086001200F49086001F00AFA01200E495F
:101BD000C1F8840101F004FA07E0601CC4B2FA2CD9
:101BE00003DDFFF7BDFF012010BD06488038006807
:101BF0000028F2D10349091D086000BFF4E7000086
:101C000000080140800121420000214270B50446D5
:101C1000FFF780FFD020FFF74DFFFFF7C5FF2046FD
:101C2000FFF748FFFFF7C0FFFFF774FFD120FFF772
:101C300041FFFFF7B9FF0020FFF704FF0546FFF75C
:101C40008FFF284670BD2DE9F04106460F46144629
:101C50001D46FFF75FFF002141EA4601C8B2FFF7CA
:101C600029FFFFF7A1FF20B1FFF77AFF0120BDE8B0
:101C7000F0813846FFF71EFFFFF796FFFFF74AFF98
:101C8000012101EB4601C8B2FFF714FFFFF78CFFFB
:101C90000DE0012C04D10020FFF7D4FE287003E0F2
:101CA0000120FFF7CFFE2870601EC4B26D1C002C0F
:101CB000EFD1FFF755FF0020D9E710B50446E00645
:101CC000010E1C2000F043F810BD10B50446E006DC
:101CD000010E1B2000F03BF810BD70B50446002536
:101CE000BC2C01DB012510E0622C01DB02250CE09D
:101CF0002A2C01DB032508E0142C01DB042504E079
:101D00000A2C01DB052500E0062529461A2000F0F3
:101D10001EF870BD70B50446B4F57A7F01DD4FF44E
:101D20007A74042C00DA04244FF47A7090FBF4F0F7
:101D3000401EC5B22946192000F009F8054626467E
:101D400004EBD671C1F34F00FFF7C7FF70BD70B54C
:101D500005460C46FFF7DEFED020FFF7ABFEFFF78F
:101D600023FF18B1FFF7FCFE012070BD2846FFF7E6
:101D7000A1FEFFF719FF2046FFF79CFEFFF714FFB7
:101D800018B1FFF7EDFE0120EFE7FFF7E9FE0020B5
:101D9000EBE72DE9F04105460E4617469846FFF75A
:101DA000B9FE002141EA4501C8B2FFF783FEFFF703
:101DB000FBFE20B1FFF7D4FE0120BDE8F0813046E4
:101DC000FFF778FEFFF7F0FE00240CE018F804009F
:101DD000FFF770FEFFF7E8FE18B1FFF7C1FE012024
:101DE000EBE7601CC4B2BC42F0DBFFF7B9FE002099
:101DF000E3E700BFFEE7000030B589B005460C46BA
:101E00000121082000F0A0F80220ADF820001020E9
:101E10008DF8230003208DF8220008A91D48FEF745
:101E20007AFF0121022000F07FF80121092000F053
:101E30008BF80120ADF8200018208DF82300032036
:101E40008DF8220008A91348FEF765FFADF8185079
:101E5000ADF814400020ADF81A00ADF8160005A941
:101E60000D4800F009FB6020ADF804000120ADF83A
:101E700006000020ADF80C0001A9074800F0A0FA08
:101E80000821054800F0ECFA0121034800F065FA4A
:101E900009B030BD000C0140000400407047000054
:101EA00070B5002100230F22C47804B3154C2468B8
:101EB00004F4E064C4F5E064210AC1F10403CA40FB
:101EC000447804FA03F184781440214309010E4C4C
:101ED0000678A155047804F01F050124AC4005786C
:101EE0006D11AD0005F1E025C5F8004109E0047869
:101EF00004F01F050124AC40044D0678761145F826
:101F0000264070BD0CED00E000E400E080E100E060
:101F100002490143024A1160704700000000FA05BF
:101F20000CED00E07047000029B1064AD269024377
:101F3000044BDA6104E0034AD2698243014BDA615F
:101F4000704700000010024029B1064A926902431E
:101F5000044B9A6104E0034A92698243014B9A61FF
:101F6000704700000010024030B50021002200241C
:101F700000232D4D6D6805F00C0121B1042905D019
:101F8000082923D105E0294D056022E0274D056091
:101F90001FE0254D6D6805F47012234D6D6805F442
:101FA0008034022505EB92421CB9214D5543056052
:101FB0000BE01D4D6D6805F400351DB11C4D5543FA
:101FC000056002E0194D5543056002E0174D0560BC
:101FD00000BF00BF144D6D6805F0F0010909154DF3
:101FE0006B5C0568DD4045600F4D6D6805F4E06190
:101FF000090A104D6B5C4568DD4085600A4D6D68CF
:1020000005F46051C90A0B4D6B5C4568DD40C56045
:10201000054D6D6805F44041890B074D6B5CC56843
:10202000B5FBF3F5056130BD0010024000127A00E7
:1020300000093D003200002042000020704710B52A
:1020400000F002F810BD00000CB5002001900090D7
:102050003348006840F480303149086000BF3048A0
:10206000006800F4003000900198401C0190009836
:1020700018B90198B0F5A06FF1D12948006800F4B3
:10208000003010B10120009001E000200090009885
:10209000012843D12348006840F01000214908601E
:1020A0000846006820F0030008600846006840F019
:1020B000020008601A4840681949486008464068AC
:1020C00048600846406840F48060486008464068C0
:1020D00020F47C1048600846406840F4E8104860EE
:1020E0000846006840F08070086000BF0C48006837
:1020F00000F000700028F9D00948406820F0030083
:10210000074948600846406840F00200486000BF48
:102110000348406800F00C000828F9D10CBD00000D
:102120000010024000200240042808D14FF0E021B6
:10213000096941F004014FF0E022116107E04FF01E
:10214000E021096921F004014FF0E022116170479C
:102150007047000010B51348006840F001001149B5
:10216000086008464068104908400E494860084623
:1021700000680E4908400B4908600846006820F4D2
:10218000802008600846406820F4FE0048604FF454
:102190001F008860FFF753FF4FF00060044908609C
:1021A00010BD0000001002400000FFF8FFFFF6FE27
:1021B00008ED00E07FB505460C460121C802FFF797
:1021C000C3FEADF80850ADF804400020ADF80A0099
:1021D000ADF8060001A90D4800F04EF901221146A4
:1021E0000A4800F0DAF819208DF8000003208DF875
:1021F00001008DF8020001208DF803006846FFF70A
:102200004FFE0121014800F0A8F87FBD002C0140DD
:1022100010B501211D4800F0AFF8002835D01C484A
:10222000008898B900210846FFF7CAFA002101206A
:10223000FFF7C6FA00210220FFF7C2FA00210320AF
:10224000FFF7BEFA0120124908801AE01048008802
:10225000012813D101210020FFF7B2FA012108461D
:10226000FFF7AEFA01210220FFF7AAFA01210320AD
:10227000FFF7A6FA00200649088002E00020044982
:1022800008800121014800F065F810BD002C0140D4
:102290003000002010B52C48007800F080000028A5
:1022A0004CD10121294800F067F8012818D12648AF
:1022B000007800F0400098B12348007800F0010059
:1022C00048B12148007840F080001F490870012083
:1022D0001F49088004E01C480078401C1A49087017
:1022E00002211A4800F048F8012827D11648007842
:1022F00000F0400078B11448007840F080001249A6
:102300000870124800F035F81149088000210F4884
:1023100000F04CF812E000200B4908700C490880CE
:102320000948007840F0400007490870002107483C
:1023300000F09FF80221054800F038F80321034817
:1023400000F008F810BD000016000020000C00404E
:1023500014000020CA430282704721B1028842F073
:102360000102028004E002884FF6FE731A400280E8
:1023700070470146888E704730B502460020002322
:102380000024158A05EA0103958905EA010413B1C1
:102390000CB1012000E0002030BD1AB183890B434D
:1023A000838102E083898B43838170470A46002141
:1023B000018C4FF6FD7319401143018470470000F2
:1023C00070B5002400220023058C4FF6FF663540CF
:1023D0000584028C8388848B4FF68F752C404FF6D2
:1023E000FC752C400D882C434FF6FF552A400D8973
:1023F0004FF6FF7606EA05252A434D8806EA0525AD
:102400002A43154DA84202D0144DA8421DD14FF2C7
:10241000FF752A404D894FF6FF7606EA05252A43C7
:102420004FF6FF352A408D8806EA05252A434EF6E9
:10243000FF752B404DF6FF752B408D8906EA05157B
:102440002B43CD8906EA05152B4383808483CD88F1
:102450008587028470BD0000002C014000340140DB
:102460000A460021818B4FF6F7731940114381838F
:102470007047818470470000002202881D4B9842FB
:102480000ED01D4B98420BD0B0F1804F08D01B4BA3
:10249000984205D01A4B984202D01A4B984204D168
:1024A0004FF68F731A404B881A43174B984207D048
:1024B000164B984204D04FF6FF431A40CB881A437C
:1024C00002808B8883850B8803850A4B98420BD04A
:1024D000094B984208D00E4B984205D00D4B9842BC
:1024E00002D00D4B984201D10B7A038601238382DF
:1024F00070470000002C01400034014000040040FF
:1025000000080040000C0040001000400014004093
:1025100000400140004401400048014021B182894F
:1025200042F40052828104E082894DF6FF731A4022
:102530008281704702460020B1F5007F00D100BFC4
:1025400013880B400BB1012000E000207047F0B56C
:102550000346002400260025002040F66A17B942F1
:1025600000D100BF1846C1F3421401F01F06012735
:1025700007FA06F5012C01D10C3004E0022C01D140
:10258000103000E014301AB107682F43076002E0F2
:102590000768AF430760F0BD2DE9F04786B00546F8
:1025A0000E460024A24600BFA1460027B08900B114
:1025B00000BF2F462C8A4CF6FF700440F08804437D
:1025C0002C82AC894EF6F3100440B0883189084360
:1025D000718908430443AC81AC8A4FF6FF40044044
:1025E000B0890443AC8201A8FFF7BEFC1F488742B4
:1025F00002D1DDF810A001E0DDF80CA0A88900F4FC
:10260000004040B10AEBCA0000EB0A1031684900F3
:10261000B0FBF1F807E00AEBCA0000EB0A103168E2
:102620008900B0FBF1F86420B8FBF0F00401200948
:10263000642101FB1089A88900F4004040B13220D8
:1026400000EBC900B0FBF1F000F00700044308E024
:10265000322000EB09106421B0FBF1F000F00F0014
:1026600004432C8106B0BDE8F0870000003801402B
:10267000C1F308028280704700BFFEE710B586B044
:10268000044601218803FFF75FFC01210420FFF7C6
:102690005BFC18208DF807004FF40070ADF80400C3
:1026A00003208DF8060001A91D48FEF734FB042025
:1026B0008DF807000002ADF8040003208DF8060035
:1026C00001A91748FEF727FB02940020ADF814007B
:1026D0000C20ADF812000020ADF81000ADF80E008F
:1026E000ADF80C0002A90F48FFF756FF25208DF822
:1026F000000001208DF8030002208DF801008DF804
:1027000002006846FFF7CCFB012240F22551054844
:10271000FFF71DFF01210348FFF700FF06B010BDC2
:102720000008014000380140490050EAC12018BFAC
:1027300004204A0D18BF40F0010040F2FF72B2EBD6
:10274000515F08BF40F00200012808BF0520704714
:102750002DE9F0414F1E00EBC7010446D1E900010D
:1027600015461E4637F006020DD02A46334603F0C2
:102770004BFA7F1E04EBC703D3E9002303F03CF8B8
:1027800037F00602F1D1022F25D0042F13D0062FE7
:1027900018BFBDE8F0812A46334603F035FAD4E984
:1027A0000A2303F029F82A46334603F02DFAD4E928
:1027B000082303F021F82A46334603F025FAD4E92A
:1027C000062303F019F82A46334603F01DFAD4E92C
:1027D000042303F011F82A46334603F015FAD4E92E
:1027E000022303F009F82A46334603F00DFAD4E930
:1027F0000023BDE8F04102F0FFBF012204F0B9B8A8
:1028000002F0FABF002213461046114603F0A4B8A6
:10281000024A0020110704F0ACB8000001FDFFFFE0
:1028200030380A2801D2012070470020704700BFCD
:10283000704700002DE9FE4F06460F46002568460A
:1028400001F0DCF9002442E056F8240057F8241087
:10285000A0EB010ABAF1000F01DB514601E0CAF119
:102860000001084603F076FE83464FF08F4103F0E7
:102870003FFD80465DF82400002103F0FBFD16D0EB
:102880005DF82410404603F033FD82464FF07E5140
:1028900003F0C8FF814629F0004A0F48416A5046BC
:1028A00003F084FF12D20120A04005430EE00A4845
:1028B000C169404603F07AFE05D30748016A4046E5
:1028C00003F074FF02D20120A0400543641C032CD6
:1028D000BADB2846BDE8FE8F286A00082DE9F04DD6
:1028E0008D4F21F0004A86B005460C46BA452ADBDA
:1028F000AAEB070028430AD08848824501DC1AD198
:10290000CDB106B02846BDE8F04DFFF776BF844A4A
:10291000844B284603F078F907460E46824A834BDB
:102920002846214603F070F906B03A463346BDE822
:10293000F04D02F061BF0120FDF74AFE06B0BDE890
:10294000F04DFFF75FBF7A48824542DABAF1795F0E
:102950000BDA2846FFF7E8FE042808BFFFF758FF08
:10296000284606B02146BDE8F08D2A460B461046A3
:1029700003F04AF9834602466E480E460B4606218E
:102980007844FFF7E5FE5A46334603F03DF98046AA
:1029900069488A465A46334604217844FFF7D8FEF0
:1029A0005A46334603F030F900223B4602F024FF3A
:1029B00002460B464046514602F0CEFF2A462346C9
:1029C00003F022F906B02A462346BDE8F04D02F096
:1029D00013BF284624F0004100223D463B4603F049
:1029E00011FA4FF0FF3203F0C4FF06460246534887
:1029F0000F460B4606217844FFF7AAFE32463B46B7
:102A000003F002F9CDE900014D4832463B4604216E
:102A10007844FFF79DFE32463B4603F0F5F800226E
:102A20002B4602F0E9FE834602913046394602F019
:102A30007BFE804643480D46504517DCDDE900012A
:102A40005A46029B02F088FF42462B4603F0DCF810
:102A500042462B4602F0D0FE012203F08AFF304AA4
:102A6000304B03F0C1FA304A304B4CE04FF0000AD3
:102A700052460B46404602F0BFFECDE903105246D7
:102A80002B461046194603F0BFF832463B4603F08A
:102A9000B9F9DDE9033202F05FFF06460F46DDE9D2
:102AA00000015A46029B02F057FF83460091012223
:102AB0003046394603F05DFF194A1A4B03F0A2F97C
:102AC00006460F4601224046294603F052FF5A4669
:102AD000009B03F099F832463B4603F085FA064620
:102AE0000F4601225046294603F043FF0E4DDFF802
:102AF00058802A46434603F085F932463B4603F0A8
:102B000081F92A46434603F07DF9002CD8BF81F0B5
:102B1000004106B0BDE8F08D0000F03F0000F07FFE
:102B2000075C143326A6913C182D4454FB21F93F31
:102B30000000E03FD44C0000EA4C00005E4C000076
:102B4000744C00003333EF3FFB21E93F2DE9F84F90
:102B500004460D4621F0004000917349814211DC8A
:102B60007249884201DC06D12CB120462946BDE8D5
:102B7000F84FFFF742BE6E48002DCCBF6D496E493D
:102B8000BDE8F88F6D49814211DD6D498142D8BFA2
:102B90004FF0FF366DDD20462946FFF7C5FD0428BE
:102BA00008BFFFF735FE20462946BDE8F88F654986
:102BB000654F25F00045814233DD6449814219DDCE
:102BC000002632464FF080432046294602F014FE8C
:102BD00080468A4601222046294603F0CAFE00228A
:102BE0003B4603F001FA4246534602F0B5FE044666
:102BF0000D463EE001260022BA463B4620462946C5
:102C000002F0FAFD80460F46002253462046294630
:102C100003F0EAF942463B4602F09EFE04460D46AA
:102C200027E04B4981421BDDDFF828A10226002264
:102C300053462046294602F0E7FF00223B4602F0B9
:102C4000DBFD80460F46002253462046294603F00E
:102C5000CBF942463B4602F07FFE04460D4608E0B3
:102C6000032622462B4600203B4902F075FE04460F
:102C70000D4622462B461046194602F0C5FF8B46EC
:102C8000824602460B4602F0BFFF07460246334823
:102C900088460B4606217844FFF75AFD52465B46AC
:102CA00002F0B2FF82462E488B463A464346052143
:102CB0007844FFF74DFD3A46434602F0A5FF024631
:102CC0000B46002E504659460CDA02F095FD22467E
:102CD0002B4602F099FF01B022462B46BDE8F04F8B
:102CE00003F090B802F088FD22462B4602F08CFFDC
:102CF0001C4A7A4402EBC603D3E9002303F074F9BB
:102D000022462B4603F070F9174A7A4402EBC603B9
:102D1000D3E9002303F076F8009A002AB8BF81F0C7
:102D20000041BDE8F88F0000000010440000F07F73
:102D3000182D4454FB21F93FFB21F9BF0000DC3F73
:102D40000000203E0000F33F0000F03F0000E63F9F
:102D5000008003400000F83F0000F0BF764A00000A
:102D6000344A0000D24900009A4900002DE9F04D94
:102D70009446CCF1000423F000464CEA0404524F80
:102D800046EAD4749A46884621F00042BC4206D8EE
:102D9000454240EA050442EAD474BC4204D9BDE885
:102DA000F04D6246FFF72CBDAAF14055A5F17F65B5
:102DB00055EA0C040BD0022404EAAA74434DDFF850
:102DC00010E144EAD87452EA000B04D00CE0BDE8EC
:102DD000F04DFFF7BBBE002C14BF012CBDE8F08DF9
:102DE000022C30D0032C32D056EA0C0B0AD0BE4253
:102DF00020D1BA4209D126F0804622F080423346E3
:102E0000114617E000291ADB25E0DFF8C8B0FB44C3
:102E1000002C04BFDBE90001BDE8F08D012C02BFEE
:102E2000DBE9000181F00041BDE8F08D022C0AD001
:102E3000032C0CD0BA4212D1B8F1000F0BDA2348A0
:102E40002549BDE8F08D28462449BDE8F08D284687
:102E50007146BDE8F08D1D482149BDE8F08D921BFB
:102E600012153C2AC4BF19481D490EDCBAF1000FE7
:102E7000BEBF12F13C0F0020014606DB624602F0A5
:102E80006BFD21F00041FFF761FE002C08BFBDE89B
:102E9000F08D012C04BF81F00041BDE8F08D114A96
:102EA000114B022C07D003F09FF82A46BDE8F04DE5
:102EB0000A4B03F099B803F097F82A46BDE8F04DA5
:102EC000064B02F09FBF00000000F07F182D445415
:102ED000FB2109C02E490000FB21F9BFFB2109405D
:102EE000FB21F93F075C143326A6A13C2DE9F041F4
:102EF0000446E07800F0C006E07800F03F05607816
:102F000000F0010098B1EF102846E91705EB517168
:102F1000C910A5EBC101491C01F0FF080B4800686E
:102F200020B10A48414602683846904700BF6078A1
:102F300000F0080030B10548406818B1B011034AEC
:102F4000516888470020BDE8F0810000380100206A
:102F500010B56FF00400FFF7E7F80A4800680A4967
:102F6000B0FBF1F0094908700846007800EB400119
:102F7000C1EBC0104FF6FF7101EAC00004490880A0
:102F800010BD00000000002000127A004600002062
:102F9000480000200146114A12884A434FF0E023BE
:102FA0005A6100229A611A46126942F001021A61BE
:102FB00000BF4FF0E022106900F001021AB100F4E6
:102FC0008032002AF5D04FF0E022126922F001028F
:102FD0004FF0E0231A6100229A61704748000020F8
:102FE0000146114A12784A434FF0E0235A61002209
:102FF0009A611A46126942F001021A6100BF4FF04D
:10300000E022106900F001021AB100F48032002AB7
:10301000F5D04FF0E022126922F001024FF0E023D8
:103020001A6100229A6170474600002038B50446B4
:1030300064B120208DF8000028208DF80100302098
:103040008DF8020038208DF8030004E0A32204214B
:103050006846FDF735FA6A46042140F69E2002F0E4
:1030600091FA01F07BFE38BD3EB5044602208DF892
:103070000000CA208DF80100E3208DF8020009202D
:103080008DF803006A460421682002F07BFAA32031
:103090008DF8000004F0400048B1C0208DF8010018
:1030A000C8208DF80200C2208DF8030006E0A3209E
:1030B0008DF801008DF802008DF8030004F4C07053
:1030C00048B1C4208DF80400CC208DF80500C6203E
:1030D0008DF8060006E0A3208DF804008DF80500A9
:1030E0008DF80600A3208DF807008DF808008DF8F4
:1030F00009006A460A2140F6A72002F043FA04F0CC
:10310000030018B120208DF8000002E0D8208DF8CF
:1031100000006A46012140F6B62002F033FA04F0BE
:10312000200018B1012000F0ADF802E0002000F00E
:10313000A9F804F4C07008B304F4807060B1B22040
:103140008DF800008B208DF80100B6208DF802006C
:103150009B208DF803000BE0B0208DF8000080204C
:103160008DF80100B4208DF8020090208DF8030046
:103170006A46042140F6A22002F004FA04F001009D
:1031800020B3F8208DF800006A4601214FF40B604F
:1031900002F0F8F9FA21072000F02CFC072000F0DB
:1031A000F3FB012000F013FC642000F0F3FC4FF46B
:1031B000FA7000F002FDC821304800F0A3FB28207F
:1031C00000F0BCFB0A2000F0CCFB08E0D8208DF812
:1031D00000006A4601214FF40B6002F0D3F904F0BD
:1031E000020018B1D9208DF8000002E0D8208DF837
:1031F00000006A46012140F23D7002F0C3F904F07C
:10320000040018B1012000F069F802E0002000F08D
:1032100065F804F0100018B10120FFF707FF02E085
:103220000020FFF703FF44F008001549488101F032
:1032300095FD00201249887304F0400018B108463B
:10324000807B801D887304F4C07020B10C48807BA3
:10325000801D0B49887304F0140020B10848807B5E
:1032600010300749887304F0030020B10448807BC4
:10327000001D0349887300203EBD000009E3CA0217
:10328000380100203EB504466CB10EA1D1E9002002
:103290008968CDE9002002916A4609214FF49760C0
:1032A00002F070F93EBD0AA2D2E900109268CDE9A1
:1032B000010200916A4609214FF4976002F062F919
:1032C000F0E70000B8AAB38DB4980D355D0000009A
:1032D000B8AAAAAAB088C3C5C700000038B504467A
:1032E00064B1C0208DF80000C2208DF80100C42018
:1032F0008DF80200C6208DF8030004E08B22042123
:103300006846FDF7DDF86A46042140F6982002F091
:1033100039F901F023FD38BD10B5C8234FF48062A0
:10332000024940F6F63001F0ADFB10BD506A0008CE
:103330002DE9F04F8DB00746884615469946DDE9E0
:10334000166B0024002030806B49887B5A4605A903
:1033500001F064FC18B1601E0DB0BDE8F08F664846
:10336000807A00F01400002867D09DF81400000651
:103370009DF8151040EA01409DF8161040EA012022
:103380009DF81710084328609DF8180000069DF866
:10339000191040EA01409DF81A1040EA01209DF8FA
:1033A0001B10084368609DF81C0000069DF81D1066
:1033B00040EA01409DF81E1040EA01209DF81F10D0
:1033C0000843A8609DF8200000069DF8211040EAFF
:1033D00001409DF8221040EA01209DF82310084387
:1033E000E86004F11000C4B2286800140190686815
:1033F00000140290A86800140390E8680014049078
:1034000001984043029901FB0100039901FB01006F
:10341000049901FB010ABAF1706F02DBBAF1885F0F
:1034200005DD01F09BFC00203080401E94E7B6F9DA
:10343000000040F48070308000BF2F48807A00F098
:10344000400020B305A9601C085C095D40EA01202A
:1034500000B2A8F8000005A9E01C095C05AAA01CA0
:10346000105C41EA002000B2A8F8020005A9601D26
:10347000095C201D105C41EA002000B2A8F804009D
:10348000A01DC4B2B6F9000040F0080030801A4810
:10349000408900F4C07008B305A9601C085C095D90
:1034A00040EA012000B2388005A9E01C095C05AAA9
:1034B000A01C105C41EA002000B2788005A9601DC4
:1034C000095C201D105C41EA002000B2B880A01DFC
:1034D000C4B2B6F9000040F0700030800648807A2F
:1034E00000F0030018B105A90819FFF7FFFC4846D2
:1034F00000F05AFF00202FE73801002070B588B097
:10350000064601A801F012F9BDF804000021C90324
:1035100041EA5045C4034448007A00F0030056F8DD
:10352000200005904048007A00F0040010B1059892
:10353000404205903C48007AC0F3C10056F8200094
:1035400006903948007A00F0200010B106984042F9
:1035500006903548007AC0F3811056F82000079095
:103560003148008900F4807010B1079840420790FC
:103570000598C117A0FB042301FB043100FB0510D3
:10358000810041EA927005900698C117A0FB0423C0
:1035900001FB043100FB0510810041EA92700690A6
:1035A0000798C117A0FB042301FB043100FB0510A1
:1035B000810041EA927007900598000E8DF808008E
:1035C0000598000C8DF809000598000A8DF80A008E
:1035D0000598C0B28DF80B000698000E8DF80C000F
:1035E0000698000C8DF80D000698000A8DF80E0064
:1035F0000698C0B28DF80F000798000E8DF81000E5
:103600000798000C8DF811000798000A8DF8120039
:103610000798C0B28DF8130002AA0C214FF4257050
:1036200001F0B0FF08B070BD3801002030B585B0A2
:10363000044616A207CA02AB07C3C82C03DD4FF02D
:10364000FF3005B030BDC82090FBF4F0401E85B2BD
:10365000280A8DF80000E8B28DF801006A460221C0
:1036600040F2162001F08EFF10B14FF0FF30E8E776
:1036700002AA0C2140F6C12001F084FF10B14FF0E6
:10368000FF30DEE7044884810020DAE7FEF2ABC4B5
:10369000AAF1DFDFBBAFDFDF380100201FB5044632
:1036A0004848007A00F0030054F820000190454893
:1036B000007A00F0040010B10198404201904148A6
:1036C000007AC0F3C10054F8200002903D48007A0F
:1036D00000F0200010B10298404202903948007A70
:1036E000C0F3811054F8200003903648008900F49C
:1036F000807010B10398404203903349019880FBD9
:103700000101800F40EA810001902F49029880FB5F
:103710000110820042EA917002902B49039880FBCD
:103720000110820042EA917003900198000E8DF81A
:1037300000000198000C8DF801000198000A8DF836
:1037400002000198C0B28DF803006A4604214FF4CC
:10375000747001F017FF18B14FF0FF3004B010BDC6
:103760000298000E8DF800000298000C8DF8010000
:103770000298000A8DF802000298C0B28DF803008A
:103780006A4604214FF4757001F0FCFE10B14FF051
:10379000FF30E3E70398000E8DF800000398000C5B
:1037A0008DF801000398000A8DF802000398C0B25A
:1037B0008DF803006A4604214FF4767001F0E2FEB2
:1037C000CCE700003801002009E3CA0210B586B03A
:1037D000044647A00068039046A00068029046A0F7
:1037E0000068019045A00068009004F0030003A960
:1037F000085C8DF8140003A8C4F3C101405C8DF887
:10380000150003A8C4F38111405C8DF8160004F084
:10381000030002A9085C8DF8100002A8C4F3C101DE
:10382000405C8DF8110002A8C4F38111405C8DF852
:10383000120005AA032140F2264001F0A3FE18B1B0
:103840004FF0FF3006B010BD04AA032140F22A4019
:1038500001F098FE10B14FF0FF30F3E701980590AA
:103860000098049004F0040058B19DF8140040F052
:1038700001008DF814009DF8100040F001008DF853
:10388000100004F0200058B19DF8150040F0010030
:103890008DF815009DF8110040F001008DF8110021
:1038A00004F4807058B19DF8160040F001008DF8C6
:1038B00016009DF8120040F001008DF8120005AAD4
:1038C00003214FF4886001F05DFE10B14FF0FF302E
:1038D000B8E704AA032140F2314001F053FE10B1D1
:1038E0004FF0FF30AEE7064804810020AAE7000051
:1038F0004CCD6C000CC92C0036567600264666006E
:1039000038010020F8B505460E464FF47A7095FB55
:10391000F0F000FB06F4200E8DF80000200C8DF86E
:103920000100200A8DF80200E0B28DF803006A461B
:1039300004214FF4AE7001F025FEF8BD38B5044601
:10394000052094FBF0F084B220128DF80000E0B264
:103950008DF801006A4602214FF4AD7001F012FEAD
:1039600038BD38B50446052094FBF0F084B220122F
:103970008DF80000E0B28DF801006A4602214FF494
:10398000AC7001F0FFFD38BD38B504460020009052
:1039900004F0010020B19DF8000040F030000090DC
:1039A00004F0020020B19DF8000040F00C000090EF
:1039B00004F0040020B19DF8000040F003000090E6
:1039C0006A4601214FF4A47001F0DCFD38BD38B522
:1039D0000446012C01DA012402E0042C00DD042459
:1039E000601EC0B200906A46012140F24F1001F003
:1039F000C9FD38BD2DE9FC4706460F4606F0070015
:103A000010B1B7F5C86F03DD4FF0FF30BDE8FC879C
:103A1000384602F0B7FD8146594902F069FC8046FC
:103A2000684600F05DFE9DF80000022806D00428DC
:103A300016D0082826D0102848D135E04FF08D4107
:103A4000404602F0E7FD814602F064FD84B24D4934
:103A5000404602F0DFFD814602F05CFD85B238E0B1
:103A60004FF08C41404602F0D5FD814602F052FDF8
:103A700084B24549404602F0CDFD814602F04AFD40
:103A800085B226E04FF08B41404602F0C3FD8146EF
:103A900002F040FD84B23D49404602F0BBFD814644
:103AA00002F038FD85B214E04FF08A41404602F042
:103AB000B1FD814602F02EFD84B23549404602F048
:103AC000A9FD814602F026FD85B202E04FF0FF30ED
:103AD0009CE700BF20128DF80400E0B28DF80500CD
:103AE00028128DF80600E8B28DF8070006F00100F4
:103AF000A0B101AA02214FF4EA7001F043FD10B118
:103B00004FF0FF3082E70DF1060202214FF4927070
:103B100001F038FD10B14FF0FF3077E706F00200FA
:103B2000A0B101AA02214FF4EC7001F02BFD10B1FD
:103B30004FF0FF306AE70DF1060202214FF4947056
:103B400001F020FD10B14FF0FF305FE706F00400F8
:103B5000A0B101AA02214FF4EE7001F013FD10B1E3
:103B60004FF0FF3052E70DF1060202214FF496703C
:103B700001F008FD10B14FF0FF3047E7002045E7A6
:103B800000004843000040460000C045000040459A
:103B90000000C04438B50446052094FBF0F085B21F
:103BA00028128DF80000E8B28DF801006A46022163
:103BB0004FF4EF7001F0E6FC38BD38B5044605203F
:103BC00094FBF0F085B228128DF80000E8B28DF871
:103BD00001006A4602214FF4ED7001F0D3FC38BDBC
:103BE00000BF054A128802F04002002AF9D0C2B292
:103BF000014B1B1D1A807047003801407CB50546FB
:103C000028494968087801AB04220D21FEF71BF80A
:103C100008B107207CBD9DF80700C0F301109DF896
:103C2000041001F0E00140EAE1008DF800009DF889
:103C30000700C0F381009DF8051001F0E00140EAA3
:103C4000E1008DF801009DF8070000F003009DF8E9
:103C5000061001F0E00140EAE1008DF802000024C6
:103C60001CE01DF8040018B9002045F8240013E0FA
:103C70000D4845F8240006E055F824000B4902F0F1
:103C8000C9FC45F824001DF80400401EC0B20DF820
:103C900004000028F0D100BF601CC4B2032CE0DB9C
:103CA0000020B7E7500000207B14AE3E1D5A843F31
:103CB0002DE9F04F87B005460C46914601208DF85E
:103CC000100000208DF81100FE4A1268917CFD4A18
:103CD0005268107804AB0222FEF75BF820B14FF077
:103CE000FF3007B0BDE8F08FC820FFF753F9002080
:103CF0008DF81000F34A1268D17BF24A52681078AE
:103D000004AB0122FEF745F810B14FF0FF30E8E7B1
:103D1000EC4A12685179EB4A5268107804AB0122E0
:103D2000FEF737F810B14FF0FF30DAE7E54A1268D6
:103D3000917CE44A5268107804AB0122FEF729F81E
:103D400010B14FF0FF30CCE7DE4A1268D17DDD4A7A
:103D50005268107804AB0122FEF71BF810B14FF047
:103D6000FF30BEE7D74A12681179D64A52681078F8
:103D700004AB0122FEF70DF810B14FF0FF30B0E7B1
:103D80000C208DF81000CF4A12681179CD4A526884
:103D9000107804AB0122FDF7FCFF10B14FF0FF30AB
:103DA0009FE70F20FFF7F6F8C648806A407A8DF843
:103DB0001000C44A12689178C24A5268107804AB65
:103DC0000122FDF7E6FF10B14FF0FF3089E7BD4853
:103DD000806A007A8DF81000BA4A12685178B94AA0
:103DE0005268107804AB0122FDF7D3FF10B14FF0F9
:103DF000FF3076E7B9F1000F07D0B248806A807AC9
:103E000040F0E0008DF8100004E0AE48806A807A4F
:103E10008DF81000AB4A12689179AA4A526810785E
:103E200004AB0122FDF7B5FF10B14FF0FF3058E7AA
:103E3000B9F1000F07D0A348806AC07A40F0E000D3
:103E40008DF8100003E0A048C07A8DF810009D4A5C
:103E50001268D1799B4A5268107804AB0122FDF7B1
:103E600098FF10B14FF0FF303BE7B9F1000F02D0DF
:103E7000C820FFF78FF840208DF81000914A126893
:103E80001179904A5268107804AB0122FDF781FF46
:103E900010B14FF0FF3024E778208DF81000894AE8
:103EA00012685179874A5268107804AB0122FDF7F5
:103EB00070FF10B14FF0FF3013E783498889FFF797
:103EC00069F800208DF810007E4A126851797D4A09
:103ED0005268107804AB0122FDF75BFF10B14FF080
:103EE000FF30FEE6774A1268917A764A5268107877
:103EF00004AB0222FDF7A7FE10B14FF0FF30F0E651
:103F00009DF811009DF8101040EA012B0C209BFB3E
:103F1000F0F0C6B20020A86068602860A060606011
:103F20002060824665E0674A1268D17A654A526825
:103F3000107804AB0C22FDF786FE10B14FF0FF3075
:103F4000CFE69DF811009DF8101040EA012000B264
:103F5000ADF808009DF813009DF8121040EA01200A
:103F600000B2ADF80A009DF815009DF8141040EA63
:103F7000012000B2ADF80C00BDF90810206808441B
:103F80002060BDF90A10606808446060BDF90C103B
:103F9000A0680844A0609DF817009DF8161040EA3C
:103FA000012000B2ADF800009DF819009DF818102E
:103FB00040EA012000B2ADF802009DF81B009DF818
:103FC0001A1040EA012000B2ADF80400BDF900105B
:103FD000286808442860BDF90210686808446860D1
:103FE000BDF90410A8680844A8600AF1010000F0B7
:103FF000FF0AB24597DB3448D0F800C02868C117E3
:10400000090441EA10410704624600233846FCF7E0
:1040100022F932460023CDE90201FCF71CF92860A1
:104020002948D0F800C06868C117090441EA104166
:104030000704624600233846FCF70DF93246002398
:10404000CDE90201FCF707F968601F48D0F800C00D
:10405000A868C117090441EA104107046246002319
:104060003846FCF7F8F832460023CDE90201FCF7A8
:10407000F2F8A8601448D0F804C02168C8170004FA
:1040800040EA11480F046246002338464146FCF7D7
:10409000E2F832460023CDE90201FCF7DCF82060AB
:1040A0000948D0F804C06068C117090441EA10410A
:1040B0000704624600233846FCF7CDF83246002359
:1040C00004E0000050000020286A0008CDE9020149
:1040D000FCF7C1F860601148D0F804C0A068C117AF
:1040E000090441EA10410704624600233846FCF700
:1040F000B2F832460023CDE90201FCF7ACF8A0602B
:10410000A068002804DDA068A0F58030A06003E06E
:10411000A06800F58030A0600020E2E5286A000871
:104120002DE9FC5F06460F4600253D4949680878A1
:1041300001AB03220D21FDF786FD10B10720BDE87C
:10414000FC9F9DF8040000F01F008DF804009DF80E
:10415000050000F01F008DF805009DF8060000F036
:104160001F008DF80600002456E056F8240057F88A
:104170002410A0EB010BBBF1000F01DB594601E05D
:10418000CBF10001084602F0E5F94FF08F410090B5
:1041900002F0AEF8814601A8005D68B321490868C5
:1041A00002F0F0F9834659461F4802F0A1F8804614
:1041B00004E01E49404602F02DFA804601A8005D49
:1041C000401EC0B201A908550028F2D14146484618
:1041D00002F08EF883464FF07E5102F023FB8246B8
:1041E0002AF0004B0F488169584602F0DFFA12D2DC
:1041F0000120A04005430EE00A480169484602F04C
:10420000D5F905D307484169484602F0CFFA02D2F2
:104210000120A0400543641C032CA6DB28468EE742
:1042200050000020286A000800B04C4554E3853F48
:1042300010B50446204600F00FF80346E01C00F0DD
:104240000BF843EAC00083B2A01D00F005F843EA72
:10425000801083B2184610BD014691F90020002A53
:1042600001DD00201EE091F90020002A01DA04207F
:1042700018E091F90120002A01DD012012E091F9F6
:104280000120002A01DA05200CE091F90220002A21
:1042900001DD022006E091F90220002A01DA062061
:1042A00000E00720704700001CB5FDF753FFFEF744
:1042B0004FFEFDF75FFA00210846FDF781FA4FF443
:1042C000A060FDF725FE41F61F4140F6C310FDF743
:1042D00071FF472140F2E730FDF78EFD2248FEF7DF
:1042E000CDF9FDF7B9FA00BF00F0AAF90028FBD11B
:1042F00039E01E4A1E491F4800F090F898BB1E4A3C
:104300001E491F48FDF7E9FA1E4A1F491F48FDF7DD
:104310000CFBFCF707FB1E48006802F0DFF804B254
:104320001C48006802F0DAF805B21B48006802F089
:10433000D5F806B21948006802F0D0F807B218485C
:10434000006802F0CBF80FFA80F81648006802F017
:10435000C5F80FFA80F933463A4641464846CDE95A
:104360000054FCF751FAC4E720A107002000002008
:104370001C0000201800002028000020260000203B
:10438000240000202E0000202C0000202A00002005
:10439000B4000020A8000020B0000020A4000020ED
:1043A000AC000020A00000207047000070B504465B
:1043B000002624F00104184890F8240008B10020D9
:1043C00070BD1548807A10B94FF0FF30F8E71248F9
:1043D000057C807A2040104908740846007CA04281
:1043E00002D04FF0FF3600E0002614B90A48007DE5
:1043F00018B1012001F050F902E0002001F04CF961
:104400003CB100F0ABFC20B1034805744FF0FF3025
:10441000D6E73046D4E70000500000202DE9F04FE9
:1044200099B004460D4616464FF07E574FF00008EF
:104430004FF000094FF0000A12A813A918AB0EAAFA
:10444000CDE9001014A916A8FEF772FF18B10120DB
:1044500019B0BDE8F08FBDF84C0000F48070002862
:104460007ED00E9802F076F883464FF09D4101F021
:104470003FFF07460F9802F06DF883464FF09D41CD
:1044800001F036FF8046109802F064F883464FF042
:104490009D4101F02DFF8146119802F05BF88346A3
:1044A0004FF09D4101F024FF824639464FF0804095
:1044B00002F0B0F84946059002F0ACF8414607908A
:1044C0004FF0404002F0A6F85146059002F0A2F8E5
:1044D0000690079901F09EFE834601F06FFECDE93C
:1044E0000801FEF7FBF94FF06632544BCDE90A01A3
:1044F00001F08AFBCDE90C0101F04CF9206049463E
:104500004FF0804002F086F84946029002F082F8AF
:10451000414604904FF0404002F07CF84146029042
:1045200002F078F80390049902F07CF983464FF08A
:104530007E5101F06FFE059001F040FECDE90801CB
:1045400039464FF0804002F065F84146039002F092
:1045500061F8494604904FF0804002F05BF800E0BB
:1045600068E05146039002F055F88346049901F043
:1045700051FE059001F022FECDE90601DDE9082398
:10458000FEF7F4FB4FF066322C4BCDE90A0101F047
:104590003BFBCDE90C0101F0FDF828605146504687
:1045A00002F038F849460490484602F033F8414694
:1045B0000390404602F02EF839460190384602F04A
:1045C00029F80090019901F025FE0290039902F06C
:1045D00029F98346049902F025F9059001F0EEFDD2
:1045E000CDE908015146384602F014F849460490D6
:1045F000404602F00FF80390049901F00BFE4FF0D3
:104600008041059002F006F8834601F0D7FDCDE920
:104610000601DDE90823FEF7A9FB4FF06632074BE0
:10462000CDE90A0101F0F0FACDE90C0101F0B2F890
:10463000306001E002200BE7002009E766A64C404D
:1046400070B50024FDF7C0F900F024F9002840D12E
:10465000782000F02FFFC4B20CB1012070BD78208B
:10466000FFF7A4FEC4B20CB10220F7E7642000F00B
:10467000D3FEC4B20CB10320F0E7FEF74DFEC4B286
:104680000CB10420EAE71548FFF7D2FD0546FFF715
:104690009DF8C4B20CB10520E0E740F27310FEF7BC
:1046A000E3FCC4B20CB10620D8E76420FEF7BEFFDD
:1046B000C4B20CB10720D1E700F0A4FF04460CB14E
:1046C0000820CBE7012000F0A3FDC4B21CB10920F3
:1046D000C4E70A20C2E70020C0E700007C000020F9
:1046E00001461148407A30B1012807D0022808D08D
:1046F00003280CD108E0022008700BE004200870A9
:1047000008E00820087005E01020087002E04FF073
:10471000FF30704700BF0448C07C18B108784006DD
:10472000000E08700020F4E75000002001461348F6
:10473000407A30B1012808D002280AD0032810D1CD
:104740000BE04FF4804008800EE041F69C7008803A
:104750000AE04FF48050088006E04FF400600880C3
:1047600002E04FF0FF30704700BF0448C07C10B13A
:104770000888401008800020F5E700005000002065
:1047800001460248007C087000207047500000205D
:1047900001460F48007A30B1012807D0022809D01D
:1047A00003280FD10AE0FA2008800EE04FF4FA70D7
:1047B00008800AE04FF47A70088006E04FF4FA604F
:1047C000088002E00020088000BF00BF0020704782
:1047D0005000002001460E48007A30B1012807D071
:1047E000022808D003280CD108E00A4808600BE032
:1047F0000948086008E00948086005E008480860C2
:1048000002E04FF0FF30704700BF0020FBE70000E0
:104810005000002000000343000083423333034272
:104820003333834101461248C07A082817D2DFE8A3
:1048300000F01704070A0D101318BC20088013E0BD
:104840006220088010E02A2008800DE014200880F3
:104850000AE00A20088007E00520088004E000BF85
:1048600000BF0020088000BF00BF0020704700008C
:10487000500000200146064890F8240010B14FF087
:10488000FF3070470248C08908800020F9E7000027
:10489000500000201CB580208DF80000654A126889
:1048A000917C644A526810786B460122FDF771FAD8
:1048B00010B14FF0FF301CBD6420FEF76BFB0020F1
:1048C0008DF800005B4A1268917C5A4A5268107851
:1048D0006B460122FDF75DFA10B14FF0FF30EAE7B9
:1048E000544A1268917D534A526810786B460622EA
:1048F000FDF7A9F910B14FF0FF30DCE79DF8050096
:10490000C007400F9DF8031001F0010140EA41008B
:104910009DF8011001F0010140EA010494B1012C5D
:1049200003D101214348C17431E0022C03D100219D
:104930004048C1742BE021463FA0FBF7B1FC4FF08B
:10494000FF30B8E73B4A1268D1783A4A526810788B
:104950006B460122FDF777F910B14FF0FF30AAE75F
:104960009DF8000000F00F042CB93D48FBF798FCBF
:104970004FF0FF309FE7042C06D13AA0FBF790FCE4
:1049800001212C48C17402E000212A48C174FF2192
:1049900028488172FF2027490872FF21254841726B
:1049A000C1724FF6FF71C181FF2101748174012131
:1049B000017380F82210002180F8231041750175E1
:1049C0001630016041608160163880F8241080F84C
:1049D0002510C1844FF4FA6000F062FC10B14FF072
:1049E000FF3068E7022000F02BFB10B14FF0FF30E2
:1049F00061E72A2000F0CEFC10B14FF0FF305AE7FB
:104A0000322000F009FD10B14FF0FF3053E70020D5
:104A1000FFF7CCFC10B14FF0FF304CE7002000F066
:104A200051FB10B14FF0FF3045E7002000F042FD90
:104A3000002040E750000020556E737570706F7253
:104A400074656420736F6674776172652070726F2D
:104A500064756374207265762025642E0A00000058
:104A60004877000848616C662073656E73697469E5
:104A700076697479207061727420666F756E642E29
:104A80000A0000002DE9F04385B005460E46904629
:104A90009946294890F8250020B14FF0FF3005B025
:104AA000BDE8F08316B94FF0FF30F8E7002423E0AB
:104AB000281B102801DD102000E0281B87B23219C6
:104AC0003946204600F05EFD10B14FF0FF30E6E7BA
:104AD00001AA3946204600F001F910B14FF0FF302D
:104AE000DDE730193A4601A9FBF7BEFC10B16FF0C3
:104AF0000100D4E7E01984B2AC42D9DB4FEA2820A8
:104B00008DF8000008F0FF008DF801000A4A1268D5
:104B1000917E094A526810786B460222FDF739F9F6
:104B200010B14FF0FF30BAE70121034880F825109B
:104B3000A0F826900020B2E75000002038B50446C7
:104B4000282C02DD4FF0FF3038BDDCB9002000F02A
:104B5000EBFB00208DF8000007208DF801002E4AA5
:104B60001268917C2C4A526810786B460222FDF73D
:104B700010F910B14FF0FF30E6E70021264801752B
:104B80000020E1E7012000F0CFFB20208DF800009D
:104B9000012C06D100208DF80100052000F0FAFB61
:104BA00017E0052C06DC01208DF80100052000F03F
:104BB000F1FB0EE0142C06DC02208DF801000A2027
:104BC00000F0E8FB05E003208DF80100142000F060
:104BD000E1FB9DF80100072101EB8010C0B28DF8C8
:104BE00001000D4A1268917C0B4A526810786B469E
:104BF0000222FDF7CEF810B14FF0FF30A4E70821F4
:104C00000548817200210173012101750020FFF721
:104C1000CDFB002098E7000050000020F8B50446C6
:104C20000F4616462C4890F8240010B94FF0FF307C
:104C3000F8BD2948807A10B94FF0FF30F8E7264ACE
:104C40001268917A244A526810786B460222FCF767
:104C5000FAFF10B14FF0FF30EAE79DF801009DF830
:104C6000001040EA0125A54203DA00203070401E02
:104C7000DEE7194840684088B5EB600F17DD164A3B
:104C80001268517C144A526810786B460122FCF776
:104C9000DAFF10B14FF0FF30CAE79DF8000000F0D6
:104CA000100020B100F05AF86FF00100C0E7E2B246
:104CB000094B1B68D97A084B5B6818783B46FCF7B0
:104CC000C2FF10B14FF0FF30B2E795FBF4F0401E89
:104CD00030700020ACE7000050000020F8B504461A
:104CE0000D46164616B94FF0FF30F8BD1A48807AC7
:104CF00010B94FF0FF30F8E720128DF80000E0B255
:104D00008DF801009DF8010028441349496849893C
:104D1000884202DD4FF0FF30E7E70F4A1268117E4C
:104D20000D4A526810786B460222FDF732F810B136
:104D30004FF0FF30D9E7EAB2074B1B68597D064BAD
:104D40005B6818783346FCF77EFF10B14FF0FF30F8
:104D5000CBE70020C9E700005000002008B57048EC
:104D6000807A10B94FF0FF3008BD002000906C4AE7
:104D70001268D17B6A4A526810786B460122FDF7AF
:104D800008F810B14FF0FF30EEE7654A126851792C
:104D9000634A526810786B460122FCF7FAFF10B1A3
:104DA0004FF0FF30E0E75E4A126811795C4A5268C2
:104DB00010786B460122FCF7ECFF10B14FF0FF308A
:104DC000D2E7574890F82400002853D00C200090D8
:104DD000534A12681179524A526810786B46012280
:104DE000FCF7D7FF10B14FF0FF30BDE73220FEF7E0
:104DF000D1F8C02000904A48807A00F0010020B12C
:104E00009DF8000040F020000090454A126811799A
:104E1000434A526810786B460122FCF7BAFF10B182
:104E20004FF0FF30A0E73E48407C10B102200090D8
:104E300001E0002000903A4A1268D17B384A52685B
:104E400010786B460122FCF7A4FF10B14FF0FF3041
:104E50008AE700200090324A12685179304A52683D
:104E600010786B460122FCF794FF002855D04FF0D4
:104E7000FF3079E704200090294A12681179284A06
:104E8000526810786B460122FCF783FF10B14FF097
:104E9000FF3069E72248807C20B92148807A00F001
:104EA000010010B94020009001E0602000901C4AF1
:104EB000126811791A4A526810786B460122FCF781
:104EC00068FF10B14FF0FF304EE73220FEF762F876
:104ED0001348407C10B10120009001E000200090B8
:104EE0000F4A1268D17B0E4A526810786B46012235
:104EF000FCF74FFF10B14FF0FF3035E7084A12685A
:104F00005179074A52681078054B10330122FCF79B
:104F100040FF10B14FF0FF3026E7002024E70000EB
:104F2000500000202DE9F04F8DB083460F4602203F
:104F30000C90424890F8240020B1002000F068F95D
:104F4000012600E0002603A8FFF722FC05A8FFF7D2
:104F5000C7FB01A8FFF766FC02A8FFF78BFC3748E8
:104F600090F80AA004A8FFF70BFC002407E0002239
:104F700039465846FEF79CFE00B902E0641C022C3C
:104F8000F5DB00BF022C01D1002528E0002407E05A
:104F9000012206A909A8FEF78BFE00B902E0641CF5
:104FA000022CF5DB00BF022C01D1002517E006A979
:104FB0003846FDF73FFC00F0FF0809A95846FFF707
:104FC000AFF800F0FF090025B9F1000F01D145F05D
:104FD0000105B8F1000F01D145F0020500BFFF2027
:104FE00016490872FF2115484172C1724FF6FF71D0
:104FF000C181FF218172017401210173BDF80C0090
:1050000000F04EF99DF8140000F01AF8BDF8040005
:1050100000F0C0F9BDF8080000F0FEF9504600F0BD
:1050200049FA9DF81000FFF7C1F916B1012000F010
:10503000EFF828460DB0BDE8F08F000050000020CA
:1050400038B504461E48807A10B94FF0FF3038BD9D
:10505000022C06D0042C07D0082C08D0102C0CD120
:1050600008E0002000900BE00820009008E01020ED
:10507000009005E01820009002E04FF0FF30E6E7D6
:1050800000BF0F48407A9DF80010B0EBE10F01D14E
:105090000020DCE70A4A1268D179094A5268107880
:1050A0006B460122FCF775FE10B14FF0FF30CEE7E2
:1050B0009DF80000C110024841720020C7E70000BF
:1050C0005000002038B504465048807CA04201D1F1
:1050D000002038BD002C46D04C4A126811794B4A4A
:1050E000526810786B460122FCF7ADFD10B14FF00D
:1050F000FF30EEE79DF8000020F020000090434ACA
:1051000012681179414A526810786B460122FCF707
:1051100040FE10B14FF0FF30DBE70320FDF73AFF10
:1051200002200090394890F8220020B19DF800003C
:1051300040F080000090354890F8230020B19DF8A1
:10514000000040F030000090304A1268117D2F4A74
:10515000526810786B460122FCF71BFE002851D0E4
:105160004FF0FF30B5E7294A12681179274A526893
:1051700010786B460122FCF766FD10B14FF0FF304E
:10518000A7E72248807A00F0010028B19DF80000CE
:1051900040F02000009004E09DF8000020F0200086
:1051A00000901A4A12681179184A526810786B46B2
:1051B0000122FCF7EEFD10B14FF0FF3089E703202C
:1051C000FDF7E8FE114890F8220010B18020009011
:1051D00001E0002000900D4890F8230020B19DF8D8
:1051E000000040F030000090084A1268117D074A24
:1051F000526810786B460122FCF7CBFD10B14FF0DE
:10520000FF3066E701488474002062E75000002008
:1052100038B50446214890F82400A04201D100206E
:1052200038BD24B31D4890F8250010B94FF0FF3069
:10523000F6E7002000F030FA0020FFF743FF17499F
:10524000C88C00F0E9F800200090144949680878FB
:105250006B4601222321FCF79CFD01210F4880F8B9
:105260002410012000F018FAFFF778FD13E0002069
:1052700000F012FA0948007C009008494968087853
:105280006B4601222321FCF784FD0021034880F8AE
:105290002410FFF763FD0020C2E70000500000204B
:1052A00038B504461F48807A10B94FF0FF3038BD3A
:1052B000FA2C09D0B4F5FA7F09D0B4F57A7F09D079
:1052C000B4F5FA6F0CD108E0002000900BE0082044
:1052D000009008E01020009005E01820009002E007
:1052E0004FF0FF30E3E700BF0E48007A9DF8001052
:1052F000B0EBE10F01D10020D9E70A4A1268917999
:10530000084A526810786B460122FCF742FD10B142
:105310004FF0FF30CBE79DF80000C0100149087244
:105320000020C4E75000002038B50446184890F823
:105330002300A04201D1002038BD14B130200090DC
:1053400001E0002000901248807C20B19DF8000010
:1053500040F0020000900E4890F8220020B19DF825
:10536000000040F080000090094A1268117D084A50
:10537000526810786B460122FCF70BFD10B14FF01C
:10538000FF30D9E7024880F823400020D4E700002E
:105390005000002038B504461E48807A10B94FF0FE
:1053A000FF3038BDBC2C02DB0120009015E0622CE0
:1053B00002DB0220009010E02A2C02DB0320009088
:1053C0000BE0142C02DB0420009006E00A2C02DB28
:1053D0000520009001E0062000900E48C07A9DF85C
:1053E0000010884201D10020DBE70A4A1268917858
:1053F000084A526810786B460122FCF7CAFC10B1CB
:105400004FF0FF30CDE79DF800100248C172002038
:10541000C7E700005000002038B504462448807AD1
:1054200010B94FF0FF3038BD214890F8240010B17A
:105430004FF0FF30F7E71E48007D50B134B1282C03
:1054400004DCE0B2FFF77AFB0020ECE70020FFF776
:1054500075FB042C01DA042404E0B4F57A7F01DD45
:105460004FF47A744FF47A7090FBF4F0401EC0B29F
:1054700000900F4A126851780D4A526810786B46B6
:105480000122FCF786FC10B14FF0FF30CBE79DF80E
:105490000000401C4FF47A7191FBF0F081B2044897
:1054A000C1810146C9894810FFF774FF0020BAE79F
:1054B0005000002038B5044604F0700010B10120FF
:1054C000009005E014B10020009001E04020009021
:1054D0002B4A1268917C2A4A526810786B46012246
:1054E000FCF757FC20B1002125488172481E38BDC9
:1054F0009DF8000020F04001214801730020009039
:1055000004F0400020B99DF8000040F00400009035
:1055100004F0200020B99DF8000040F00200009047
:1055200004F0100020B99DF8000040F00100009048
:1055300004F0080020B99DF8000040F03800009009
:105540000F4A1268D17C0E4A526810786B460122CD
:10555000FCF71FFC20B1002109488172481EC6E7F4
:1055600024B1082C02D00020FFF7DEFE044884722C
:10557000002101753220FDF70DFD0020B7E7000086
:1055800050000020F8B504460D46164616B94FF0F7
:10559000FF30F8BD1A48807A10B94FF0FF30F8E7B5
:1055A00020128DF80000E0B28DF801009DF8010096
:1055B0002844134949684989884202DD4FF0FF3089
:1055C000E7E70F4A1268117E0D4A526810786B4661
:1055D0000222FCF7DEFB10B14FF0FF30D9E7EAB250
:1055E000074B1B68597D064B5B6818783346FCF700
:1055F000D0FB10B14FF0FF30CBE70020C9E700002F
:105600005000002070B588B002A905A8FFF78AFCF9
:105610000446032C3ED101A8FFF7DCF8059800F002
:1056200099FF0646019900F0F5FF054600F056FF88
:105630000590069800F08EFF0646019900F0EAFFFB
:10564000054600F04BFF0690079800F083FF0646E2
:10565000019900F0DFFF054600F040FF079005A824
:10566000FEF71CF86846FFF761F8BDF800100298D5
:1056700048430290BDF80010039848430390BDF8DA
:10568000001004984843049002A8FDF737FF00205B
:1056900008B070BD0120FBE738B50446214890F8FA
:1056A0002400C0B114B10220009001E0002000905D
:1056B0001C4A1268D17B1B4A526810786B46012243
:1056C000FCF767FB10B14FF0FF3038BD9DF80010BC
:1056D0001448417423E01348807A10B94FF0FF302A
:1056E000F3E724B10F48407C08B10020EDE714B186
:1056F0000120009001E0002000900A4A1268D17B4E
:10570000084A526810786B460122FCF742FB10B140
:105710004FF0FF30D9E79DF8001002484174002097
:10572000D3E70000500000202DE9F04106460F4667
:1057300000F074FB04000D4618BF0120284320F040
:105740000040C0F17F6000F1E040C00F0ED0301C7F
:1057500018BF0120384320F00040C0F17F6000F105
:10576000E040C00F04BF0120FAF732FF204629466F
:10577000BDE8F08110B5044600BF40210448FCF7A5
:10578000D9FE0028F9D021460148FCF771FF10BD71
:105790000038014021F00042A2F16052B2F5801FB2
:1057A00001F0004328BFD2F17F6C0BD95FEA001CE7
:1057B00043EAC20242EB507018BF704728BF20F086
:1057C00001007047B2F5801FBCBF184670474FEA12
:1057D000410C1CF5001F02D2084600F0E2BF70B574
:1057E00000F0BCFA00000089FFF7F6BF4FF0004060
:1057F000A0F580007047000010B591EA030F48BF84
:1058000083F0004300F1F883841A71EB030C05D296
:10581000121943EB0C03001B61EB0C01DFF824E1D0
:105820004FEA1154A4EB135C1EEA430F18BF9EEA23
:10583000445F73D023EA0E03DCF1200E21EA045109
:1058400043F4801332D322FA0CFE10EB0E0023FA3D
:105850000CFE41EB0E01CCF1200E03FA0EFE10EB14
:105860000E0051F10001B1F5801FCCF1200E32D2B3
:1058700001EB045112FA0EF2BDE8104058BF704718
:10588000401C38BF5FEA420218BF7047002814BFAF
:1058900020F0010041F100014FEA410313F5001F20
:1058A00038BF7047A1F1C04100F0A6BA012A43EB0E
:1058B0000302ACF1200CDCF11F0E32BF4FF0000EE2
:1058C00023FA0CF310EB030041EB0451B4EB115F2E
:1058D000D0D0A1EB045101F5801149085FEA3000F6
:1058E00001EB04510ED350F1000038BF12FA0EFE46
:1058F00008D1BDE81040C9E7401C38BF5FEA42024A
:10590000CAD1C3E7BDE810404FEA410313F5001FB9
:1059100038BF7047A1F1C04100F06EBA9EEA445F03
:1059200008D011EA5E0FBDE8104004BF01F000414D
:1059300000207047BDE8104070B500F00FFA00BFBE
:1059400064FBBE3E0000E0FF02494FF0000000F0A3
:10595000DEBF00BF0000F87F2DE9C04130B4DFF8A2
:10596000A0C23CEA111418BF3CEA131400F0EC800A
:1059700081EA03051CEA111444EAD57418BF1CEA35
:10598000131500F0C780A4EB05044FF0004545EA6D
:10599000C12145EAC32341EA505143EA525304F17D
:1059A0007F74994204F500344FEAC0204FEAC222C6
:1059B00008BF904200F09C804FEA13650FF240163A
:1059C000765D4FEA134506FB05F7C7F1807706FBC6
:1059D00007F74FEAD737A7FB03687642C8F5803848
:1059E000A7FB06CE38BFA8F1010807FB08E64FF079
:1059F000000EA6FB028CE6FB03CEDCF1000CCEF120
:105A0000004E38BFAEF1010EA6FB0C584FF0000758
:105A10004FF00005E6FB0E87A1FB08C6A0FB07CEF2
:105A200016EB0E0645F10005E1FB076515F1E04EAA
:105A30007EBFA4F580345FEA46066D4116F180070B
:105A400045F100054FEA17274FEA066647EA056762
:105A5000A6F1DE46B6F1805F4FEA15251FD938461C
:105A600024F0010C05EBC471BCF1FE6F01EB0C11CD
:105A700002D8F0BCBDE8008124425CBF01F5801E65
:105A80009EEAC47F02D4F0BCBDE80081244238D431
:105A9000F0BCA1F1C041BDE8004100F0ADB94FEA52
:105AA000D22242EA43524FEAD323A7FB02864FEAAF
:105AB000D02040EA415007FB03661EEA0E0F4FEA72
:105AC000D12105FB026658BFA6EB0056B6EB005687
:105AD0004FEA520E4EEAC37E18EB0E0E56EB530EF3
